:100000000C943B000C9463000C9463000C9463000C
:100010000C9463000C9463000C9463000C946300D4
:100020000C9463000C9463000C9463000C946300C4
:100030000C9463000C9463000C9463000C946300B4
:100040000C9429030C9463000C94F7020C94D102D5
:100050000C9463000C9463000C9463000C94630094
:100060000C9473030C9463001F1C1F1E1F1E1F1F84
:100070001E1F1E008E0411241FBECFEFD8E0DEBF6E
:10008000CDBF22E0A0E3B1E001C01D92A239B207CA
:10009000E1F711E0A0E0B1E0E0ECFEE002C0059085
:1000A0000D92A033B107D9F710E0CBE3D0E004C044
:1000B0002197FE010E945807CA33D107C9F70E9451
:1000C000C7040C945E070C940000AF92BF92CF92CD
:1000D000DF92EF92FF920F931F93CF93DF936C0108
:1000E0007B018B01040F151FEB015E01AE18BF08E9
:1000F000C017D10759F06991D601ED91FC9101909B
:10010000F081E02DC6010995892B79F7C501DF91B2
:10011000CF911F910F91FF90EF90DF90CF90BF9004
:10012000AF900895FC01538D448D252F30E0842F2E
:1001300090E0821B930B541710F0CF96089501970F
:100140000895FC01918D828D981761F0A28DAE0FFC
:10015000BF2FB11D5D968C91928D9F5F9F73928F83
:1001600090E008958FEF9FEF0895FC01918D828DAF
:10017000981731F0828DE80FF11D858D90E008957C
:100180008FEF9FEF0895FC01918D228D892F90E0D4
:10019000805C9F4F821B91098F739927089589EE88
:1001A00091E00E94C30021E0892B09F420E0822F16
:1001B000089580E090E0892B29F00E94CF00811102
:1001C0000C9400000895FC01A48DA80FB92FB11D57
:1001D000A35ABF4F2C91848D90E001968F7399277D
:1001E000848FA689B7892C93A089B1898C9183705B
:1001F00080648C93938D848D981306C00288F38954
:10020000E02D80818F7D80830895EF92FF920F9380
:100210001F93CF93DF93EC0181E0888F9B8D8C8DB2
:1002200098131AC0E889F989808185FF15C09FB7A6
:10023000F894EE89FF896083E889F9898081837069
:10024000806480839FBF81E090E0DF91CF911F9118
:100250000F91FF90EF900895F62E0B8D10E00F5F39
:100260001F4F0F731127E02E8C8D8E110CC00FB60F
:1002700007FCFACFE889F989808185FFF5CFCE01A7
:100280000E94E300F1CFEB8DEC0FFD2FF11DE35A3F
:10029000FF4FF0829FB7F8940B8FEA89FB8980812A
:1002A0008062CFCFCF93DF93EC01888D8823B9F0A4
:1002B000AA89BB89E889F9898C9185FD03C0808171
:1002C00086FD0DC00FB607FCF7CF8C9185FFF2CFEE
:1002D000808185FFEDCFCE010E94E300E9CFDF9161
:1002E000CF9108953FB7F89480917801909179016A
:1002F000A0917A01B0917B0126B5A89B05C02F3F44
:1003000019F00196A11DB11D3FBFBA2FA92F982F3B
:100310008827BC01CD01620F711D811D911D42E036
:10032000660F771F881F991F4A95D1F7089585EDAD
:100330008093BC008091BC0084FDFCCF1092C6016C
:10034000089520915001260F3327331F21323105A4
:10035000ECF42091C601FC0190E080E0243069F0CB
:1003600082E00895A09150012191AC01405D5E4F63
:10037000A40FB52FB11D2C930196861798F3809189
:100380005001680F6093500180E0089581E0089566
:100390000895E091C8018091C701E81730F4F0E0BA
:1003A000E753FE4F808190E008958FEF9FEF08950F
:1003B0009091C8018091C7012FEF3FEF981748F443
:1003C000E92FF0E0E753FE4F208130E09F5F9093EC
:1003D000C801C90108958091C7019091C801891B86
:1003E000990B0895CF92DF92EF92FF920F931F9394
:1003F000CF93DF937C01CB018A0120917C012223E2
:1004000089F0EB016B01C40ED51ECC15DD0569F03A
:100410006991D701ED91FC910190F081E02DC70128
:100420000995F3CF642F0E94A101C801DF91CF91FC
:100430001F910F91FF90EF90DF90CF900895CF9391
:10044000DF931F92CDB7DEB7698320917C01222311
:10045000F9F020919F01203258F021E030E0FC01BA
:100460003383228390E080E00F90DF91CF91089555
:1004700080917D01E82FF0E0E258FE4F9981908352
:100480008F5F80937D0180939F0181E090E0ECCFAE
:1004900061E0CE0101960E94A101F7CF90E080E0DB
:1004A00008958F929F92AF92BF92CF92DF92EF9278
:1004B000FF92CF93DF93EC016A017B0180E8C81AB9
:1004C00083E4D80A8DE6E80A88E3F80A8CE3882EEC
:1004D000912CA12CB12CC701B601A50194010E9459
:1004E00036076D83CA01B901A50194010E94360740
:1004F0006C83C701B60120E13EE040E050E00E947D
:100500003607CA01B90128E130E040E050E00E941E
:1005100036076B83C701B60120E831E541E050E0C2
:100520000E943607188263E97EEF8881982F9370C6
:1005300041E050E011F050E040E0FA01E359FE4F95
:100540002E173F0740F0FB01E41BF50B2E0F3F1F5A
:100550008F5F8883EACF81E0898389818C30A0F422
:10056000482F4150550BFA01E859FF4FE491911182
:1005700003C0823009F4EF5FF0E02E173F0720F050
:100580002E1B3F0B8F5FE8CF2F5F2A83DF91CF9128
:10059000FF90EF90DF90CF90BF90AF909F908F90A3
:1005A00008951F920F920FB60F9211242F933F932D
:1005B0004F935F936F937F938F939F93AF93BF936B
:1005C000EF93FF9389EE91E00E94E300FF91EF919A
:1005D000BF91AF919F918F917F916F915F914F915B
:1005E0003F912F910F900FBE0F901F9018951F9263
:1005F0000F920FB60F9211242F938F939F93EF9327
:10060000FF93E091F901F091FA018081E091FF01FF
:10061000F091000282FD1BC09081809102028F5FE9
:100620008F7320910302821741F0E0910202F0E003
:10063000E751FE4F958F80930202FF91EF919F91BA
:100640008F912F910F900FBE0F901F901895808162
:10065000F4CF1F920F920FB60F9211242F933F9356
:100660008F939F93AF93BF93809174019091750185
:10067000A0917601B09177013091730123E0230FAF
:100680002D3758F50196A11DB11D2093730180935C
:10069000740190937501A0937601B09377018091D6
:1006A000780190917901A0917A01B0917B01019636
:1006B000A11DB11D8093780190937901A0937A01D7
:1006C000B0937B01BF91AF919F918F913F912F91FB
:1006D0000F900FBE0F901F90189526E8230F0296DB
:1006E000A11DB11DD2CF1F920F920FB60F921124F0
:1006F0002F933F934F935F936F937F938F939F932A
:10070000AF93BF93EF93FF938091B900887F8036BA
:1007100009F44AC0F0F5883209F4A5C018F5803113
:1007200009F499C0B8F4882309F4F5C0883009F4B5
:1007300092C0FF91EF91BF91AF919F918F917F9167
:100740006F915F914F913F912F910F900FBE0F903E
:100750001F901895883109F486C0803251F7809334
:10076000C40114C0803409F49BC040F48033B9F351
:100770008833F9F68093C40185ECAEC0803509F466
:1007800083C0883509F494C0883499F60E94970193
:10079000D0CF883909F48AC038F5883729F050F469
:1007A000883611F0803729F683E08093C6011092D5
:1007B000720155C0883809F479C0803919F0803841
:1007C00009F0B7CF80917201803208F06FC0E091DC
:1007D000720181E08E0F809372018091BB00F0E086
:1007E000EE5AFE4F80833BC0803B39F0D0F4803A14
:1007F00009F477C0883A09F09CCF84E08093C60161
:100800001092510110925001F0E0E0E009958091C2
:10081000500181110FC081E080935001109230018E
:1008200009C0803C09F4A8CF883C09F4A5CF883BD7
:1008300009F07FCFE091510181E08E0F809351014B
:10084000F0E0E05DFE4F80818093BB00909151010C
:100850008091500129C08091C1018093BB0085EC3B
:100860008093BC0066CF9091C3018091C20198171C
:1008700058F5E091C30181E08E0F8093C301F0E051
:10088000E056FE4F8081E9CFE091C30181E08E0FF9
:100890008093C3018091BB00F0E0E056FE4F80835F
:1008A0009091C3018091C2019817C8F285E8D8CF12
:1008B000E091C30181E08E0F8093C3018091BB0062
:1008C000F0E0E056FE4F80838091C50181115ECF3C
:1008D00081E08093C00184EA8093BC001092C6013D
:1008E00028CF85EC8093BC001092C60180917201E4
:1008F000803230F4E0917201F0E0EE5AFE4F108247
:100900006091720170E082E591E0F0E0E0E009952D
:10091000109272010ECF1092C40138CFE9EEF1E0CF
:100920001382128288EE93E0A0E0B0E08483958386
:10093000A683B78324E031E03183208325EC30E0C7
:100940003587248724EC30E03787268720EC30E099
:10095000318B208B21EC30E0338B228B22EC30E08A
:10096000358B248B26EC30E0378B268B118E128E44
:10097000138E148EE6E8F2E013821282848395834C
:10098000A683B78386E191E0918380830895CF9316
:10099000DF93CDB7DEB72C970FB6F894DEBF0FBE4E
:1009A000CDBF789484B5826084BD84B5816084BDF8
:1009B00085B5826085BD85B5816085BD80916E00FD
:1009C000816080936E00109281008091810082602E
:1009D000809381008091810081608093810080916B
:1009E00080008160809380008091B100846080935A
:1009F000B1008091B00081608093B00080917A0056
:100A0000846080937A0080917A00826080937A007B
:100A100080917A00816080937A0080917A0080686A
:100A200080937A001092C100E091F901F091FA01EF
:100A300082E08083E091F901F091FA011082E09167
:100A4000F501F091F6011082E091F701F091F801C3
:100A500080E1808310920102E091FD01F091FE019E
:100A600086E08083E091FB01F091FC018081806150
:100A70008083E091FB01F091FC018081886080839C
:100A8000E091FB01F091FC01808180688083E0911E
:100A9000FB01F091FC0180818F7D808305EE75EC78
:100AA000372E22242A945DE6A52EBB24B39460E061
:100AB000862E60E0962E11E047E050E064E271E09F
:100AC00089EE91E00E94650042E050E06CE271E046
:100AD00089EE91E00E94650010937C0128E6209346
:100AE0009E0110927D0110929F0160E086E892E0E5
:100AF0000E941F0290919F019132D8F58091C6010A
:100B00008111FCCF42E04093C6011093C5012092B1
:100B1000C4011092C3019093C201EEE7F1E0A0EA94
:100B2000B1E09813F3C01092C1018091C101806DB2
:100B30008093C1018091C001813009F0EBC0109217
:100B4000C0018091C1018093BB008091BC0083FDF6
:100B5000F8CF3092BC008091C6018230E1F38091E1
:100B6000C4018F3F31F08091C401803211F0809137
:100B7000C40110927D0110929F0110927C0180911E
:100B8000C6018111FCCF1093C6011093C5012092BC
:100B9000C4011092C30186E08093C2011093C10189
:100BA0008091C101806D8093C1018091C00181302D
:100BB00009F0B3C01092C0018091C1018093BB00C5
:100BC0008091BC0083FDF8CF3092BC008091C601BB
:100BD0008130E1F38091C30197E0873010F4909168
:100BE000C301A0EAB1E0E9ECF1E080E0891398C02C
:100BF0001092C8018093C70186E892E00E94D80154
:100C00008F77282F30E0E4E035952795EA95E1F7D6
:100C1000922F990F990FF22EF91AFF0CF80E86E811
:100C200092E00E94D8019C01F4E035952795FA9551
:100C3000E1F72F703327922F990F990FD22ED91ADF
:100C4000DD0CD80E86E892E00E94D8019C01A4E059
:100C500035952795AA95E1F72F703327922F990F95
:100C6000990FC22EC91ACC0CC80E86E892E00E94D9
:100C7000D80186E892E00E94D801AC01B4E0559515
:100C80004795BA95E1F74F705527942F990F990F13
:100C9000242F291B220F722E780E86E892E00E94E4
:100CA000D8019C0194E0359527959A95E1F72F702E
:100CB0003327922F990F990FE22EE91AEE0CE80EC6
:100CC00086E892E00E94D8019C0144E03595279582
:100CD0004A95E1F72F703327922F990F990F422FE2
:100CE000491B942F990F980F492F50E0BA01605378
:100CF000784F272D30E0E8E6F0E081E08E15A0F493
:100D0000A4912A0F311D8F5F3196F8CF21912D9339
:100D10008F5F07CF0093BC001ECF0093BC0056CF5F
:100D20002D9121938F5F62CF82E08E1520F4937016
:100D300011F42F5F3F4FCB018D5C974096958795BF
:100D4000969587954A9DB0014B9D700D5A9D700DEB
:100D50001124860F971F0197280F391FA8E1B0E0D3
:100D60000E9427079B01AC012C0D311D411D511D17
:100D7000ACE3B0E00E941C079B01AC012D0D311DBE
:100D8000411D511D0E941C07CF2CD12CF12CE12CB0
:100D90002FE7C21A2CEBD20A22E9E20A27ECF20A68
:100DA000AB01BC014C0D5D1D6E1D7F1DCE01079674
:100DB0000E94510242E659E365E47FE5CE010196C7
:100DC0000E94510286E0FE013196DE0117960190E5
:100DD0000D928A95E1F70E9472012B013C0178EE99
:100DE000C72E73E0D72EE12CF12C0E9472016419FA
:100DF000750986099709683E734081059105A8F336
:100E000041E0C41AD108E108F10888EE480E83E0F9
:100E1000581E611C711CC114D104E104F10429F7AE
:100E20008114910409F448CE0E94CF00882309F46C
:100E300042CE0E94000037CE0E942707A59F900D4A
:100E4000B49F900DA49F800D911D11240895A29F21
:100E5000B001B39FC001A39F700D811D1124911D8E
:100E6000B29F700D811D1124911D0895A1E21A2ECB
:100E7000AA1BBB1BFD010DC0AA1FBB1FEE1FFF1F3E
:100E8000A217B307E407F50720F0A21BB30BE40B8E
:100E9000F50B661F771F881F991F1A9469F76095D5
:100EA0007095809590959B01AC01BD01CF0108958F
:100EB000EE0FFF1F0590F491E02D0994F894FFCFF9
:100EC000000000000501650092005201C300A1006E
:100ED000B500000000001F02F2014E02C801EB0144
:100EE000D801C90168656C6C6F2074000D0A0000A0
:107E0000112484B714BE81FFF0D085E080938100F7
:107E100082E08093C00088E18093C10086E0809377
:107E2000C20080E18093C4008EE0C9D0259A86E02C
:107E300020E33CEF91E0309385002093840096BBD3
:107E4000B09BFECF1D9AA8958150A9F7CC24DD24C4
:107E500088248394B5E0AB2EA1E19A2EF3E0BF2EE7
:107E6000A2D0813461F49FD0082FAFD0023811F036
:107E7000013811F484E001C083E08DD089C08234E0
:107E800011F484E103C0853419F485E0A6D080C0E4
:107E9000853579F488D0E82EFF2485D0082F10E0AE
:107EA000102F00270E291F29000F111F8ED06801E7
:107EB0006FC0863521F484E090D080E0DECF843638
:107EC00009F040C070D06FD0082F6DD080E0C81688
:107ED00080E7D80618F4F601B7BEE895C0E0D1E017
:107EE00062D089930C17E1F7F0E0CF16F0E7DF06D8
:107EF00018F0F601B7BEE89568D007B600FCFDCFD4
:107F0000A601A0E0B1E02C9130E011968C91119780
:107F100090E0982F8827822B932B1296FA010C0160
:107F200087BEE89511244E5F5F4FF1E0A038BF0790
:107F300051F7F601A7BEE89507B600FCFDCF97BE46
:107F4000E89526C08437B1F42ED02DD0F82E2BD052
:107F50003CD0F601EF2C8F010F5F1F4F84911BD097
:107F6000EA94F801C1F70894C11CD11CFA94CF0C13
:107F7000D11C0EC0853739F428D08EE10CD085E9AC
:107F80000AD08FE07ACF813511F488E018D01DD067
:107F900080E101D065CF982F8091C00085FFFCCF94
:107FA0009093C60008958091C00087FFFCCF809118
:107FB000C00084FD01C0A8958091C6000895E0E648
:107FC000F0E098E1908380830895EDDF803219F02E
:107FD00088E0F5DFFFCF84E1DECF1F93182FE3DFCA
:107FE0001150E9F7F2DF1F91089580E0E8DFEE27F6
:047FF000FF270994CA
:027FFE00040479
:0400000300007E007B
:00000001FF
