:100000000C943B000C9463000C9463000C9463000C
:100010000C9463000C9463000C9463000C946300D4
:100020000C9463000C9463000C9463000C946300C4
:100030000C9463000C9463000C9463000C946300B4
:100040000C9457040C9463000C9425040C94FF0347
:100050000C9463000C9463000C9463000C94630094
:100060000C94A1040C9463001F1C1F1E1F1E1F1F55
:100070001E1F1E1FBC0511241FBECFEFD8E0DEBF20
:10008000CDBF11E0A0E0B1E0E2E0F1E102C00590F7
:100090000D92A638B107D9F722E0A6E8B1E001C079
:1000A0001D92A83EB207E1F710E0CBE3D0E004C018
:1000B0002197FE010E947908CA33D107C9F70E942F
:1000C000F5050C947F080C940000982F20913E02B7
:1000D00081E0213208F043C080911A028111FCCFE7
:1000E00080913D0232E030931A02909319029FEF03
:1000F000909318021092170220931602ADE1B2E01D
:10010000E6EFF1E090E0291331C01092F5019091F3
:10011000F501880F892B8093F5018091F4018130DE
:1001200049F51092F4018091F5018093BB00809114
:10013000BC0083FDF8CF85EC8093BC0080911A024F
:100140008230E1F3809118028F3FB1F08091180264
:100150008032A1F080911802803391F084E01092F7
:100160001C0210923E0210921B0208953D913193A1
:100170009F5FC9CF85EEE0CF80E0F1CF82E0EFCF87
:1001800083E0EDCFAF92BF92CF92DF92EF92FF92DA
:100190000F931F93CF93DF936C017B018B01040FAF
:1001A000151FEB015E01AE18BF08C017D10759F04B
:1001B0006991D601ED91FC910190F081E02DC6018D
:1001C0000995892B79F7C501DF91CF911F910F9187
:1001D000FF90EF90DF90CF90BF90AF900895FC011B
:1001E000538D448D252F30E0842F90E0821B930B9C
:1001F000541710F0CF96089501970895FC01918D42
:10020000828D981761F0A28DAE0FBF2FB11D5D9644
:100210008C91928D9F5F9F73928F90E008958FEFE6
:100220009FEF0895FC01918D828D981731F0828D9A
:10023000E80FF11D858D90E008958FEF9FEF0895F1
:10024000FC01918D228D892F90E0805C9F4F821B55
:1002500091098F73992708958FE392E00E942001FE
:1002600021E0892B09F420E0822F089580E090E0BE
:10027000892B29F00E942C0181110C940000089513
:10028000FC01A48DA80FB92FB11DA35ABF4F2C910B
:10029000848D90E001968F739927848FA689B78902
:1002A0002C93A089B1898C91837080648C93938DF9
:1002B000848D981306C00288F389E02D80818F7D9C
:1002C00080830895EF92FF920F931F93CF93DF9354
:1002D000EC0181E0888F9B8D8C8D98131AC0E88982
:1002E000F989808185FF15C09FB7F894EE89FF8951
:1002F0006083E889F98980818370806480839FBFEF
:1003000081E090E0DF91CF911F910F91FF90EF90EE
:100310000895F62E0B8D10E00F5F1F4F0F731127FE
:10032000E02E8C8D8E110CC00FB607FCFACFE88939
:10033000F989808185FFF5CFCE010E944001F1CF80
:10034000EB8DEC0FFD2FF11DE35AFF4FF0829FB7AD
:10035000F8940B8FEA89FB8980818062CFCF682F68
:100360008FE392E00C946201CF93DF93EC01888DD0
:100370008823B9F0AA89BB89E889F9898C9185FD20
:1003800003C0808186FD0DC00FB607FCF7CF8C91AE
:1003900085FFF2CF808185FFEDCFCE010E94400125
:1003A000E9CFDF91CF91089585ED8093BC008091D6
:1003B000BC0084FDFCCF10921A0208952091A60182
:1003C000260F3327331F21323105ECF420911A0216
:1003D000FC0190E080E0243069F082E00895A09173
:1003E000A6012191AC014A575E4FA40FB52FB11D54
:1003F0002C930196861798F38091A601680F60935D
:10040000A60180E0089581E008950895E091D30168
:100410008091D201E81730F4F0E0EC52FE4F808179
:1004200090E008958FEF9FEF08959091D301809110
:10043000D2012FEF3FEF981748F4E92FF0E0EC528C
:10044000FE4F208130E09F5F9093D301C901089552
:100450008091D2019091D301891B990B0895CF927D
:10046000DF92EF92FF920F931F93CF93DF937C0164
:10047000CB018A0120911B02222389F0EB016B0141
:10048000C40ED51ECC15DD0569F06991D701ED913B
:10049000FC910190F081E02DC7010995F3CF642F05
:1004A0000E94DE01C801DF91CF911F910F91FF9053
:1004B000EF90DF90CF900895CF93DF931F92CDB749
:1004C000DEB7698320911B022223F9F020913E02BE
:1004D000203258F021E030E0FC013383228390E0A9
:1004E00080E00F90DF91CF91089580911C02E82F5A
:1004F000F0E0E35EFD4F998190838F5F80931C0253
:1005000080933E0281E090E0ECCF61E0CE01019665
:100510000E94DE01F7CF90E080E00895FC01908119
:1005200090539A3008F090E0818180532AE0929FA6
:10053000800D11240895DC0150E0E8E6F0E081E050
:10054000861730F49491490F511D8F5F3196F8CF83
:10055000633038F0CD0183709927892B11F44F5FF8
:100560005F4F9D012D5F3F4F369527953695279517
:100570006DE671E0A69FC001A79F900DB69F900DFC
:1005800011240197820F931F840F951F0895EF92F6
:10059000FF920F931F93CF93DF93EC0188814A81E1
:1005A000698190E00E949B029C01A8E1B0E00E945A
:1005B0005F082B817B018C01E20EF11C011D111DD6
:1005C000A8019701ACE3B0E00E946E082C817B018A
:1005D0008C01E20EF11C011D111DA80197010E9462
:1005E0006E082D81620F711D811D911D60587C4B1D
:1005F0008249974CDF91CF911F910F91FF90EF901F
:100600000895FC0101900020E9F73197AF01481BE4
:10061000590BBC018FE392E00C94C2008F929F9221
:10062000AF92BF920F931F93CF93DF93CDB7DEB7F7
:10063000A1970FB6F894DEBF0FBECDBF19A242300E
:1006400008F44AE08E010F5D1F4F842E912CB12CCF
:10065000A12CA50194010E943D08E62FB901CA0111
:10066000EA30F4F4E05DD801EE938D01232B242BC6
:10067000252B79F790E080E0109719F0CD010E94CA
:100680000103A1960FB6F894DEBF0FBECDBFDF9178
:10069000CF911F910F91BF90AF909F908F90089531
:1006A000E95CE1CF90911A029111FCCF282F91E0E3
:1006B00090931A02909319023FEF30931802109210
:1006C0001702380F309316029093F5019091F501BF
:1006D000906D9093F5019091F401913019F510927D
:1006E000F4019091F5019093BB009091BC0093FDB3
:1006F000F8CF95EC9093BC0090911A029130E1F301
:1007000090911702981710F420911702A6EFB1E00C
:10071000E4EDF1E080E0821307C01092D3018093F2
:10072000D201089595EEE6CF9D9191938F5FF3CF1F
:10073000682F70E090E080E04AE00C940E03CF93C5
:10074000DF9300D000D000D0CDB7DEB749835A8305
:100750006B837C838D839E83642F70E06053784F1E
:10076000072E000C880B990B4AE00E940E038FE2C3
:100770000E94AF018A810E9498038FE20E94AF011C
:100780008B810E94980384E291E00E940103898199
:100790004B816A8190E00E949B02069667E070E0C0
:1007A0000E9429080E94980387E291E00E940103B9
:1007B0008C810E9498038AE30E94AF018D810E9480
:1007C00098038AE30E94AF018E810E9498038AE217
:1007D00091E00E9401038DE291E00E940103CE01AD
:1007E00001960E94C7024AE00E940E0326960FB6A9
:1007F000F894DEBF0FBECDBFDF91CF9108951F9259
:100800000F920FB60F9211242F933F934F935F9344
:100810006F937F938F939F93AF93BF93EF93FF93C8
:100820008FE392E00E944001FF91EF91BF91AF9161
:100830009F918F917F916F915F914F913F912F91F8
:100840000F900FBE0F901F9018951F920F920FB62A
:100850000F9211242F938F939F93EF93FF93E09127
:100860004F02F09150028081E0915502F0915602C2
:1008700082FD1BC09081809158028F5F8F73209101
:100880005902821741F0E0915802F0E0E15CFD4F1F
:10089000958F80935802FF91EF919F918F912F91A7
:1008A0000F900FBE0F901F9018958081F4CF1F926C
:1008B0000F920FB60F9211242F933F938F939F9314
:1008C000AF93BF938091CE019091CF01A091D001C1
:1008D000B091D1013091CD0123E0230F2D3758F590
:1008E0000196A11DB11D2093CD018093CE0190935F
:1008F000CF01A093D001B093D1018091C901909113
:10090000CA01A091CB01B091CC010196A11DB11DEE
:100910008093C9019093CA01A093CB01B093CC01FD
:10092000BF91AF919F918F913F912F910F900FBEEB
:100930000F901F90189526E8230F0296A11DB11D58
:10094000D2CF1F920F920FB60F9211242F933F9385
:100950004F935F936F937F938F939F93AF93BF93C7
:10096000EF93FF938091B900887F803609F44AC0E5
:10097000F0F5883209F4A5C018F5803109F499C062
:10098000B8F4882309F4F5C0883009F492C0FF91C7
:10099000EF91BF91AF919F918F917F916F915F91F7
:1009A0004F913F912F910F900FBE0F901F90189570
:1009B000883109F486C0803251F78093180214C040
:1009C000803409F49BC040F48033B9F38833F9F6DE
:1009D0008093180285ECAEC0803509F483C0883559
:1009E00009F494C0883499F60E94D401D0CF883994
:1009F00009F48AC038F5883729F050F4883611F0A8
:100A0000803729F683E080931A021092C80155C0FE
:100A1000883809F479C0803919F0803809F0B7CFE7
:100A20008091C801803208F06FC0E091C80181E078
:100A30008E0F8093C8018091BB00F0E0E855FE4F17
:100A400080833BC0803B39F0D0F4803A09F477C012
:100A5000883A09F09CCF84E080931A021092A70193
:100A60001092A601F0E0E0E009958091A6018111C5
:100A70000FC081E08093A6011092860109C0803CDE
:100A800009F4A8CF883C09F4A5CF883B09F07FCFB3
:100A9000E091A70181E08E0F8093A701F0E0EA5773
:100AA000FE4F80818093BB009091A7018091A601A9
:100AB00029C08091F5018093BB0085EC8093BC0038
:100AC00066CF9091170280911602981758F5E09121
:100AD000170281E08E0F80931702F0E0EA50FE4F7C
:100AE0008081E9CFE091170281E08E0F8093170299
:100AF0008091BB00F0E0EA50FE4F80839091170296
:100B0000809116029817C8F285E8D8CFE0911702B5
:100B100081E08E0F809317028091BB00F0E0EA50D5
:100B2000FE4F80838091190281115ECF81E0809316
:100B3000F40184EA8093BC0010921A0228CF85EC5D
:100B40008093BC0010921A028091C801803230F468
:100B5000E091C801F0E0E855FE4F10826091C801B5
:100B600070E088EA91E0F0E0E0E009951092C801B9
:100B70000ECF1092180238CFEFE3F2E01382128208
:100B800088EE93E0A0E0B0E084839583A683B783EA
:100B900024E031E03183208325EC30E03587248761
:100BA00024EC30E03787268720EC30E0318B208B37
:100BB00021EC30E0338B228B22EC30E0358B248B20
:100BC00026EC30E0378B268B118E128E138E148E0E
:100BD000ECEDF2E01382128284839583A683B783BF
:100BE00086E191E0918380830895CF93DF93CDB721
:100BF000DEB72C970FB6F894DEBF0FBECDBF78944A
:100C000084B5826084BD84B5816084BD85B5826011
:100C100085BD85B5816085BD80916E0081608093C2
:100C20006E0010928100809181008260809381002B
:100C3000809181008160809381008091800081603B
:100C4000809380008091B10084608093B100809196
:100C5000B00081608093B00080917A0084608093BE
:100C60007A0080917A00826080937A0080917A0085
:100C7000816080937A0080917A00806880937A0006
:100C80001092C100E0914F02F091500282E0808307
:100C9000E0914B02F0914C021082E0914D02F091F4
:100CA0004E028FEC808310925702E0915302F09134
:100CB000540286E08083E0915102F09152028081DB
:100CC00080618083E0915102F091520280818860BE
:100CD0008083E0915102F09152028081806880838C
:100CE000E0915102F091520280818F7D8083BB247C
:100CF000B394B0921B0208E600933D0210921C02CE
:100D000010923E0260E08CED92E00E945C0281E075
:100D10000E94650081E090E00E9452038CED92E019
:100D20000E94150287FF82C089E491E00E940103BE
:100D30008AE291E00E9401038AE791E00E948E021C
:100D4000182F85E791E00E948E02F82E8DE791E042
:100D50000E948E02E82E80E891E00E948E02D82E3A
:100D600083E891E00E948E02C82EB0921B0200938D
:100D70003D0210921C0210923E0260E08CED92E067
:100D80000E945C020AE08C2D602F0E941D08682FD3
:100D9000660F680F660F6C0D8CED92E00E945C028E
:100DA0008D2D602F0E941D08682F660F680F660F3B
:100DB0006D0D8CED92E00E945C028E2D602F0E94E2
:100DC0001D08682F660F680F660F6E0D8CED92E0A0
:100DD0000E945C0260E08CED92E00E945C028F2D2C
:100DE000602F0E941D08682F660F680F660F6F0D39
:100DF0008CED92E00E945C0267E08CED92E00E9434
:100E00005C02812F602F0E941D08682F660F680FFB
:100E1000660F610F8CED92E00E945C0260E08CED49
:100E200092E00E945C0281E00E94650081E0809374
:100E30001B0288E680933D0210921C0210923E0233
:100E400060E08CED92E00E945C0281E00E9465000F
:100E500087E090E00E9452038CED92E00E94150220
:100E60008F77282F30E094E0359527959A95E1F714
:100E7000922F990F990F122F191B110F180F8CED2C
:100E800092E00E9415029C0144E0359527954A9511
:100E9000E1F72F703327922F990F990F022F091B1B
:100EA000000F080F8CED92E00E9415029C0154E0A7
:100EB000359527955A95E1F72F703327922F990F83
:100EC000990FF22EF91AFF0CF80E8CED92E00E94A9
:100ED00015028CED92E00E9415029C0164E03595AC
:100EE00027956A95E1F72F703327922F990F990F65
:100EF000E22EE91AEE0CE80E8CED92E00E9415024B
:100F00009C0174E0359527957A95E1F72F7033278A
:100F1000922F990F990FD22ED91ADD0CD80E8CED85
:100F200092E00E9415029C01E4E035952795EA9530
:100F3000E1F72F703327922F990F990F422F491BFA
:100F4000440F480F4F83D886E986FA860B871C87A3
:100F50005D2DB701C8010E949F03CE0107960E9434
:100F6000C7024B015C0122EE821A21EF920A2BE6A6
:100F7000A20A28E3B20AFCE3CF2ED12CE12CF12CFB
:100F8000C501B401A70196010E943D08162FCA01B0
:100F9000B901A70196010E943D08062FC501B401C1
:100FA00020E13EE040E050E00E943D08CA01B90166
:100FB00028E130E040E050E00E943D08F62EC501F7
:100FC000B40120E831E541E050E00E943D0840E0F6
:100FD000E3E9FEEF642F637081E009F080E051E007
:100FE000540F90E0DC01A359BE4F2A173B0738F09D
:100FF000BF01681B790B260F371F452FEBCF51E040
:10100000852F8150990BFC01E859FF4FE491611144
:1010100003C0523009F4EF5FF0E081E0850F2E1736
:101020003F0720F02E1B3F0B582FEACF61E0620FE5
:101030007F2DC8010E949F03FFCF991B79E004C058
:10104000991F961708F0961B881F7A95C9F7809507
:101050000895AA1BBB1B51E107C0AA1FBB1FA617FF
:10106000B70710F0A61BB70B881F991F5A95A9F751
:1010700080959095BC01CD010895A1E21A2EAA1B7E
:10108000BB1BFD010DC0AA1FBB1FEE1FFF1FA21738
:10109000B307E407F50720F0A21BB30BE40BF50B35
:1010A000661F771F881F991F1A9469F760957095BE
:1010B000809590959B01AC01BD01CF010895A29F41
:1010C000B001B39FC001A39F700D811D1124911D1C
:1010D000B29F700D811D1124911D08950E945F081B
:1010E000A59F900DB49F900DA49F800D911D11247C
:1010F0000895EE0FFF1F0590F491E02D0994F894E8
:02110000FFCF1F
:10110200000000006201C200EF00B4012001FE00F5
:101112001201000000005C022F028B02050228026D
:10112200150206022028002920000D0A00207369FA
:101132006E6365206D69646E6967687420312F3152
:101142002F31393730203D2000525443206973201B
:101152004E4F542072756E6E696E672C206C6574EA
:10116200277320736574207468652074696D652126
:10117200004A756C20203120323032300031373A4B
:0611820035343A34380058
:107E0000112484B714BE81FFF0D085E080938100F7
:107E100082E08093C00088E18093C10086E0809377
:107E2000C20080E18093C4008EE0C9D0259A86E02C
:107E300020E33CEF91E0309385002093840096BBD3
:107E4000B09BFECF1D9AA8958150A9F7CC24DD24C4
:107E500088248394B5E0AB2EA1E19A2EF3E0BF2EE7
:107E6000A2D0813461F49FD0082FAFD0023811F036
:107E7000013811F484E001C083E08DD089C08234E0
:107E800011F484E103C0853419F485E0A6D080C0E4
:107E9000853579F488D0E82EFF2485D0082F10E0AE
:107EA000102F00270E291F29000F111F8ED06801E7
:107EB0006FC0863521F484E090D080E0DECF843638
:107EC00009F040C070D06FD0082F6DD080E0C81688
:107ED00080E7D80618F4F601B7BEE895C0E0D1E017
:107EE00062D089930C17E1F7F0E0CF16F0E7DF06D8
:107EF00018F0F601B7BEE89568D007B600FCFDCFD4
:107F0000A601A0E0B1E02C9130E011968C91119780
:107F100090E0982F8827822B932B1296FA010C0160
:107F200087BEE89511244E5F5F4FF1E0A038BF0790
:107F300051F7F601A7BEE89507B600FCFDCF97BE46
:107F4000E89526C08437B1F42ED02DD0F82E2BD052
:107F50003CD0F601EF2C8F010F5F1F4F84911BD097
:107F6000EA94F801C1F70894C11CD11CFA94CF0C13
:107F7000D11C0EC0853739F428D08EE10CD085E9AC
:107F80000AD08FE07ACF813511F488E018D01DD067
:107F900080E101D065CF982F8091C00085FFFCCF94
:107FA0009093C60008958091C00087FFFCCF809118
:107FB000C00084FD01C0A8958091C6000895E0E648
:107FC000F0E098E1908380830895EDDF803219F02E
:107FD00088E0F5DFFFCF84E1DECF1F93182FE3DFCA
:107FE0001150E9F7F2DF1F91089580E0E8DFEE27F6
:047FF000FF270994CA
:027FFE00040479
:0400000300007E007B
:00000001FF
