:100000000C9468000C9490000C9490000C94900058
:100010000C9490000C9490000C9490000C94900020
:100020000C9490000C9490000C9490000C94900010
:100030000C9490000C9490000C9490000C94900000
:100040000C9443060C9490000C9411060C94EB0550
:100050000C9490000C9490000C9490000C949000E0
:100060000C948D060C9490001F1C1F1E1F1E1F1F3A
:100070001E1F1E31343A35333A303000536570203C
:1000800020322032303230000000000025002800ED
:100090002B00040404040404040402020202020209
:1000A000030303030303010204081020408001023C
:1000B00004081020010204081020000000080002BB
:1000C0000100000304070000000000000000B30767
:1000D00011241FBECFEFD8E0DEBFCDBF24E0ACEED1
:1000E000B1E001C01D92A835B207E1F711E0A0E030
:1000F000B1E0E4EFF6E102C005900D92AC3EB1072D
:10010000D9F710E0C8E6D0E004C02197FE010E94B4
:100110006D0BC736D107C9F70E940F080C94780BF6
:100120000C940000982F2091A90281E0213208F060
:1001300043C0809185028111FCCF8091A80232E0FA
:1001400030938502909384029FEF909383021092E4
:10015000820220938102A8E8B2E0E1E6F2E090E0BA
:10016000291331C01092600290916002880F892B90
:100170008093600280915F02813049F510925F02A6
:10018000809160028093BB008091BC0083FDF8CF1A
:1001900085EC8093BC00809185028230E1F38091F0
:1001A00083028F3FB1F0809183028032A1F0809171
:1001B0008302803391F084E0109287021092A902AA
:1001C0001092860208953D9131939F5FC9CF85EECD
:1001D000E0CF80E0F1CF82E0EFCF83E0EDCF90E0A1
:1001E000FC01E654FF4F2491FC01EA55FF4F349186
:1001F000FC01EE56FF4FE491EE23B1F0222339F0DB
:100200002330E9F090F4213001F1223011F1F0E0D7
:10021000EE0FFF1FE857FF4FA591B4918FB7F894E9
:10022000EC913E2B3C938FBF08952730A9F02830E6
:10023000C9F0243061F7809180008F7D03C08091E8
:1002400080008F7780938000E2CF84B58F7784BD64
:10025000DECF84B58F7DFBCF8091B0008F77809308
:10026000B000D5CF8091B0008F7DF9CF089508956B
:10027000AF92BF92CF92DF92EF92FF920F931F93B4
:10028000CF93DF936C017B018B01040F151FEB01F2
:100290005E01AE18BF08C017D10759F06991D601A9
:1002A000ED91FC910190F081E02DC6010995892B1B
:1002B00079F7C501DF91CF911F910F91FF90EF90DA
:1002C000DF90CF90BF90AF900895FC01538D448D87
:1002D000252F30E0842F90E0821B930B541710F0F1
:1002E000CF96089501970895FC01918D828D9817FE
:1002F00061F0A28DAE0FBF2FB11D5D968C91928DD6
:100300009F5F9F73928F90E008958FEF9FEF089506
:10031000FC01918D828D981731F0828DE80FF11DCF
:10032000858D90E008958FEF9FEF0895FC01918DEA
:10033000228D892F90E0805C9F4F821B91098F73E3
:10034000992708958AEA92E00E94960121E0892B7C
:1003500009F420E0822F089580E090E0892B29F0B5
:100360000E94A20181110C9400000895FC01A48D4B
:10037000A80FB92FB11DA35ABF4F2C91848D90E0C7
:1003800001968F739927848FA689B7892C93A089AA
:10039000B1898C91837080648C93938D848D981334
:1003A00006C00288F389E02D80818F7D80830895C7
:1003B000EF92FF920F931F93CF93DF93EC0181E0B5
:1003C000888F9B8D8C8D98131AC0E889F98980815C
:1003D00085FF15C09FB7F894EE89FF896083E8898F
:1003E000F98980818370806480839FBF81E090E081
:1003F000DF91CF911F910F91FF90EF900895F62E0E
:100400000B8D10E00F5F1F4F0F731127E02E8C8DA7
:100410008E110CC00FB607FCFACFE889F9898081EC
:1004200085FFF5CFCE010E94B601F1CFEB8DEC0F29
:10043000FD2FF11DE35AFF4FF0829FB7F8940B8F09
:10044000EA89FB8980818062CFCF682F8AEA92E0B7
:100450000C94D801CF93DF93EC01888D8823B9F0F9
:10046000AA89BB89E889F9898C9185FD03C08081BF
:1004700086FD0DC00FB607FCF7CF8C9185FFF2CF3C
:10048000808185FFEDCFCE010E94B601E9CFDF91DB
:10049000CF9108953FB7F89480913402909135023E
:1004A000A0913602B091370226B5A89B05C02F3F18
:1004B00019F00196A11DB11D3FBFBA2FA92F982F8A
:1004C0008827BC01CD01620F711D811D911D42E085
:1004D000660F771F881F991F4A95D1F708958F924D
:1004E0009F92AF92BF92CF92DF92EF92FF924B0119
:1004F0005C010E944A026B017C010E944A026C1955
:100500007D098E099F09683E734081059105A8F316
:1005100021E0821A9108A108B10888EEC80E83E094
:10052000D81EE11CF11C81149104A104B10429F727
:10053000FF90EF90DF90CF90BF90AF909F908F9003
:10054000089585ED8093BC008091BC0084FDFCCFB4
:1005500010928502089520910C02260F3327331F35
:1005600021323105ECF420918502FC0190E080E01D
:10057000243069F082E00895A0910C022191AC0131
:1005800044515E4FA40FB52FB11D2C9301968617D1
:1005900098F380910C02680F60930C0280E008953C
:1005A00081E008950895E0913D0280913C02E817B2
:1005B00030F4F0E0E25CFD4F808190E008958FEF31
:1005C0009FEF089590913D0280913C022FEF3FEF05
:1005D000981748F4E92FF0E0E25CFD4F208130E00D
:1005E0009F5F90933D02C901089580913C029091D4
:1005F0003D02891B990B0895CF92DF92EF92FF92F3
:100600000F931F93CF93DF937C01CB018A0120913D
:100610008602222389F0EB016B01C40ED51ECC1596
:10062000DD0569F06991D701ED91FC910190F081B0
:10063000E02DC7010995F3CF642F0E94AB02C801DA
:10064000DF91CF911F910F91FF90EF90DF90CF90AE
:100650000895CF93DF931F92CDB7DEB769832091C2
:1006600086022223F9F02091A902203258F021E0DD
:1006700030E0FC013383228390E080E00F90DF9133
:10068000CF91089580918702E82FF0E0E857FD4F61
:10069000998190838F5F809387028093A90281E084
:1006A00090E0ECCF61E0CE0101960E94AB02F7CF63
:1006B00090E080E00895FC01908190539A3008F01A
:1006C00090E0818180532AE0929F800D112408954B
:1006D0008F929F92AF92BF92CF92DF92EF92FF9252
:1006E000CF93DF93EC016A017B0180E8C81A83E4B1
:1006F000D80A8DE6E80A88E3F80A8CE3882E912C64
:10070000A12CB12CC701B601A50194010E944B0B8D
:100710006D83CA01B901A50194010E944B0B6C8342
:10072000C701B60120E13EE040E050E00E944B0BE3
:10073000CA01B90128E130E040E050E00E944B0BD3
:100740006B83C701B60120E831E541E050E00E942B
:100750004B0B188263E97EEF8881982F937041E0FC
:1007600050E011F050E040E0FA01E359FE4F2E173F
:100770003F0740F0FB01E41BF50B2E0F3F1F8F5F7F
:100780008883EACF81E0898389818C30A0F4482F67
:100790004150550BFA01E859FF4FE491911103C004
:1007A000823009F4EF5FF0E02E173F0720F02E1B98
:1007B0003F0B8F5FE8CF2F5F2A83DF91CF91FF90B0
:1007C000EF90DF90CF90BF90AF909F908F90089563
:1007D000DC0150E0E8E6F0E081E0861730F4949127
:1007E000490F511D8F5F3196F8CF633038F0CD013E
:1007F00083709927892B11F44F5F5F4F9D012D5F07
:100800003F4F36952795369527956DE671E0A69F63
:10081000C001A79F900DB69F900D11240197820FE4
:10082000931F840F951F0895EF92FF920F931F93CC
:10083000CF93DF93EC0188814A81698190E00E9427
:10084000E8039C01A8E1B0E00E941C0B2B817B0116
:100850008C01E20EF11C011D111DA8019701ACE3F2
:10086000B0E00E94110B2C817B018C01E20EF11C87
:10087000011D111DA80197010E94110BAB01BC01C4
:100880009D81892F90E0B0E0A0E080589C4BA24968
:10089000B74C8A019B01080F191F2A1F3B1FC90172
:1008A000B801DF91CF911F910F91FF90EF900895C4
:1008B000FC0101900020E9F73197AF01481B590B6B
:1008C000BC018AEA92E00C9438018F929F92AF9219
:1008D000BF920F931F93CF93DF93CDB7DEB7A1974E
:1008E0000FB6F894DEBF0FBECDBF19A2423008F498
:1008F0004AE08E010F5D1F4F842E912CB12CA12C4C
:10090000A50194010E944B0BE62FB901CA01EA3000
:10091000F4F4E05DD801EE938D01232B242B252BDD
:1009200079F790E080E0109719F0CD010E9458040B
:10093000A1960FB6F894DEBF0FBECDBFDF91CF9169
:100940001F910F91BF90AF909F908F900895E95C99
:10095000E1CFCF93DF93D0E0C0E0009719F00E9481
:100960005804EC0188E791E00E9458048C0F9D1F09
:10097000DF91CF910895682F70E090E080E04AE029
:100980000C946504CF93DF93EC01688170E06053B1
:10099000784F072E000C880B990B4AE00E946504E3
:1009A0008FE20E94250289810E94BB048FE20E948F
:1009B00025028A810E94BB048BE791E00E945804C3
:1009C00088814A81698190E00E94E803069667E089
:1009D00070E00E94370B4CE0489F9001499F300D1A
:1009E0001124C90180509F4F0E9458048EE791E066
:1009F0000E9458048B810E94BB048AE30E94250256
:100A00008C810E94BB048AE30E9425028D810E9492
:100A1000BB0488E791E00E94580481E891E00E94BD
:100A20005804CE010E9414044AE00E9465048DE936
:100A300091E00E945804CE010E94140420E831E5A0
:100A400041E050E00E944B0BCA01B9014AE00E940C
:100A5000650482EA91E0DF91CF910C94A904AF92F2
:100A6000BF92CF92DF92EF92FF920F931F93CF939B
:100A7000DF93CDB7DEB729970FB6F894DEBF0FBE70
:100A8000CDBF8C018AEA92E00E94960118161906E1
:100A90000CF090C084EA91E00E94A904C8010E9471
:100AA000A9041F8218861986F12CE12CD12CC12CA7
:100AB0008AEA92E00E949601892B99F444EFE416A9
:100AC00041E0F406F4F461E070E080E090E00E9420
:100AD0006F025FEFE51AF50AEBCFCC24C394D12C5B
:100AE000E7CF84EFE81681E0F8065CF48AEA92E04A
:100AF0000E947401E7E0F0E0EC0FFD1FEC0DFD1D1E
:100B00008083CA94CD2849F7D801F8019F01201BA2
:100B1000310B81918111FACFAE01495F5F4FFA012C
:100B200090E080E0BF01641B750B6217730734F41B
:100B30007D9161917613F6CF0196F4CFA8014D5FB8
:100B40005F4F6A018217930701F55A0185EFE82E7E
:100B5000FF24F3948AEA92E00E949601892B59F4CB
:100B600051E0E51AF10839F061E070E080E090E0D2
:100B70000E946F02EFCF8AEA92E00E9474018432F1
:100B800021F0F50181935F01E1CFC6010E94CC0AFB
:100B9000AB01BC01CE0101960E94680386E0FE0114
:100BA0003196D801579601900D928A95E1F781E030
:100BB00080935E0229960FB6F894DEBF0FBECDBFBC
:100BC000DF91CF911F910F91FF90EF90DF90CF9029
:100BD000BF90AF9008951F920F920FB60F921124FD
:100BE0002F933F934F935F936F937F938F939F9335
:100BF000AF93BF93EF93FF938AEA92E00E94B6010E
:100C0000FF91EF91BF91AF919F918F917F916F91E4
:100C10005F914F913F912F910F900FBE0F901F90BA
:100C200018951F920F920FB60F9211242F938F9346
:100C30009F93EF93FF93E091BA02F091BB02808102
:100C4000E091C002F091C10282FD1BC090818091B1
:100C5000C3028F5F8F732091C402821741F0E0912D
:100C6000C302F0E0E655FD4F958F8093C302FF91DC
:100C7000EF919F918F912F910F900FBE0F901F902A
:100C800018958081F4CF1F920F920FB60F92112406
:100C90002F933F938F939F93AF93BF938091300295
:100CA00090913102A0913202B091330230912F0223
:100CB00023E0230F2D3758F50196A11DB11D209378
:100CC0002F028093300290933102A0933202B093AE
:100CD00033028091340290913502A0913602B09196
:100CE00037020196A11DB11D809334029093350205
:100CF000A0933602B0933702BF91AF919F918F912D
:100D00003F912F910F900FBE0F901F90189526E8DE
:100D1000230F0296A11DB11DD2CF1F920F920FB6C5
:100D20000F9211242F933F934F935F936F937F9371
:100D30008F939F93AF93BF93EF93FF938091B900ED
:100D4000887F803609F44AC0F0F5883209F4A7C0DC
:100D500018F5803109F49BC0B8F4882309F4F9C070
:100D6000883009F494C0FF91EF91BF91AF919F91AA
:100D70008F917F916F915F914F913F912F910F9044
:100D80000FBE0F901F901895883109F488C08032EB
:100D900051F78093830214C0803409F49DC040F45D
:100DA0008033B9F38833F9F68093830285ECB0C0C1
:100DB000803509F485C0883509F496C0883499F6E1
:100DC0000E94A102D0CF883909F48CC038F5883749
:100DD00029F050F4883611F0803729F683E08093AB
:100DE000850210922E0257C0883809F47BC08039E2
:100DF00019F0803809F0B7CF80912E02803208F0C8
:100E000071C0E0912E0281E08E0F80932E028091BE
:100E1000BB00F0E0E25FFD4F80833DC0803B39F0D6
:100E2000E0F4803A09F479C0883A09F09CCF84E074
:100E30008093850210920D0210920C02E0913A020A
:100E4000F0913B02099580910C0281110FC081E065
:100E500080930C021092EC0109C0803C09F4A6CFEB
:100E6000883C09F4A3CF883B09F07DCFE0910D02C7
:100E700081E08E0F80930D02F0E0E451FE4F8081FF
:100E80008093BB0090910D0280910C0229C080914B
:100E900060028093BB0085EC8093BC0064CF90918E
:100EA000820280918102981758F5E091820281E0D8
:100EB0008E0F80938202F0E0EF59FD4F8081E9CFE1
:100EC000E091820281E08E0F809382028091BB00CC
:100ED000F0E0EF59FD4F8083909182028091810272
:100EE0009817C8F285E8D8CFE091820281E08E0F92
:100EF000809382028091BB00F0E0EF59FD4F808328
:100F00008091840281115CCF81E080935F0284EA4A
:100F10008093BC001092850226CF85EC8093BC00A4
:100F20001092850280912E02803230F4E0912E02E0
:100F3000F0E0E25FFD4F108260912E0270E0E091E0
:100F40003802F09139028EE092E0099510922E025B
:100F50000ACF1092830234CF40E853E46DE678E381
:100F600047960C946803EAEAF2E01382128288EE54
:100F700093E0A0E0B0E084839583A683B78328E55F
:100F800031E03183208325EC30E03587248724EC61
:100F900030E03787268720EC30E0318B208B21EC46
:100FA00030E0338B228B22EC30E0358B248B26EC27
:100FB00030E0378B268B118E128E138E148EE7E461
:100FC000F3E01382128284839583A683B7838AE633
:100FD00091E0918380838BE394E00E94AC078EE1E3
:100FE00094E00E94AC0781E094E00E94AC0784EE9C
:100FF00093E00E94AC0787EC93E00E94AC078AEA7A
:1010000093E00E94AC078DE893E00E94AC0780E774
:1010100093E00E94AC0783E593E00C94AC07CF9378
:10102000DF93CDB7DEB72B970FB6F894DEBF0FBEB8
:10103000CDBF789484B5826084BD84B5816084BD61
:1010400085B5826085BD85B5816085BD80916E0066
:10105000816080936E001092810080918100826097
:1010600080938100809181008160809381008091D4
:1010700080008160809380008091B10084608093C3
:10108000B1008091B00081608093B00080917A00BF
:10109000846080937A0080917A00826080937A00E5
:1010A00080917A00816080937A0080917A008068D4
:1010B00080937A001092C100259A2D98E091BA028F
:1010C000F091BB0282E08083E091BA02F091BB0212
:1010D0001082E091B602F091B7021082E091B8025E
:1010E000F091B90280E180831092C202E091BE02C9
:1010F000F091BF0286E08083E091BC02F091BD02D6
:10110000808180618083E091BC02F091BD0280818A
:1011100088608083E091BC02F091BD02808180688C
:101120008083E091BC02F091BD0280818F7D80833D
:101130008AB1806C8AB984B1836084B98BB18F73B2
:101140008BB985B18C7F85B910923D0210923C021B
:10115000109287021092A90210928502FF24F39444
:10116000F092840210925F0282E10E94EF0083E11C
:101170000E94EF008091B9008E7F8093B90080912A
:10118000B9008D7F8093B90088E48093B80085E42E
:101190008093BC0086E391E090933B0280933A02F7
:1011A00087E391E09093390280933802F0928602AF
:1011B00088E68093A802109287021092A90281E02B
:1011C0000E949200082F811181C0F0928602109235
:1011D00087021092A90260E087E493E00E9429034D
:1011E00081E00E949200809185028111FCCF81E014
:1011F00080938502809384029FEF909383021092E4
:101200008202109281028093600280916002806D60
:101210008093600280915F02813009F061C010927A
:101220005F02809160028093BB008091BC0083FDCF
:10123000F8CF85EC8093BC00809185028130E1F38A
:101240008091820281114EC080918202A1E6B2E0BB
:10125000EEE3F2E0081348C010923D0200933C0216
:1012600087E493E00E94E20287FFC6C083EC91E02E
:101270000E94A9044BE050E06CE770E0CE010196BB
:101280000E94F30ACE010A960E945B03082FE981AF
:10129000E154E33108F02DC00E2E000CFF0BED5A87
:1012A000F64F0C946D0BB60A79097909CA0A7909C7
:1012B0007809790979097909AA0A79097909BD0AA8
:1012C000C80AC60A790979097909C40A81EB91E04B
:1012D0000E94A9048AEA92E00E942A020E94730BEB
:1012E00085EEA8CF81E0B2CF9D9191930F5FB2CFF1
:1012F00012E0CE0105960E945B03E82E48E050E024
:1013000063E770E0CE0101960E94F30ACE010196D8
:101310000E945B03D82ECE0104960E945B03C82E68
:10132000CE0107960E945B03B82E81E0809386026F
:1013300088E68093A802109287021092A90260E0CA
:1013400087E493E00E9429038AE0F82E8B2D6F2D0D
:101350000E942B0B682F660F680F660F6B0D87E4DA
:1013600093E00E9429038C2D6F2D0E942B0B682F78
:10137000660F680F660F6C0D87E493E00E942903E7
:101380008D2D6F2D0E942B0B682F660F680F660F37
:101390006D0D87E493E00E94290360E087E493E009
:1013A0000E9429038E2D6F2D0E942B0B682F660F34
:1013B000680F660F6E0D87E493E00E942903812F6A
:1013C0006F2D0E942B0B682F660F680F660F610F41
:1013D00087E493E00E942903802F6F2D0E942B0B3E
:1013E000682F660F680F660F600F87E493E00E9416
:1013F000290381E00E9492008EE680931E0487E715
:1014000080931F0483E780933B0484E780933C042C
:1014100084E68093010491E3909302048093E403B3
:1014200092E39093E5038093C70393E39093C803FB
:101430008093AA0394E39093AB0380938D0395E389
:1014400090938E038093700386E38093710300E092
:1014500010E010925E0268EE73E080E090E00E947F
:101460006F028EE194E00E942F058BE394E00E94CE
:101470002F0581E094E00E942F0584EE93E00E9406
:101480002F0580915E02882309F458C080913504AD
:101490008983809136048A83809137048B8380917D
:1014A00038048C83809139048D8380913A048E8333
:1014B000CE0101960E94C2048091520489838091DA
:1014C00053048A83809154048B83809155048C83C8
:1014D000809156048D83809157048E83CE010196AE
:1014E0000E94C204809118048983809119048A8320
:1014F00080911A048B8380911B048C8380911C043F
:101500008D8380911D048E83CE0101960E94C204BA
:101510008091FB0389838091FC038A838091FD0382
:101520008B838091FE038C838091FF038D83809158
:1015300000048E83CE0101960E94C204011511059C
:1015400009F487CF0E94A201882309F482CF0E9468
:1015500000007FCF8A8111E0813609F4CACE8B81E9
:1015600017E08E3609F0C5CE16E0C3CE8B8118E0A9
:10157000823709F0BECE14E0BCCE8B8115E08237F5
:1015800009F0B7CE13E0B5CE19E0B3CE1AE0B1CE74
:101590001BE0AFCE1CE0ADCE1F93FC01992788273E
:1015A000BC01E89411911032E9F3193010F01E30AB
:1015B000C8F31B3251F01D3249F4689406C00E94F2
:1015C000FC0A610F711D811D911D119110531A307C
:1015D000B0F33EF490958095709561957F4F8F4F55
:1015E0009F4F1F910895FB01DC0102C005900D92F1
:1015F00041505040D8F70895592F482F372F262FA4
:10160000660F771F881F991F660F771F881F991F06
:10161000620F731F841F951F660F771F881F991F06
:1016200008950E941C0BA59F900DB49F900DA49F40
:10163000800D911D11240895A29FB001B39FC00198
:10164000A39F700D811D1124911DB29F700D811DEE
:101650001124911D0895991B79E004C0991F9617D4
:1016600008F0961B881F7A95C9F780950895AA1BE4
:10167000BB1B51E107C0AA1FBB1FA617B70710F07D
:10168000A61BB70B881F991F5A95A9F780959095AF
:10169000BC01CD010895A1E21A2EAA1BBB1BFD01BE
:1016A0000DC0AA1FBB1FEE1FFF1FA217B307E40741
:1016B000F50720F0A21BB30BE40BF50B661F771F99
:1016C000881F991F1A9469F7609570958095909579
:1016D0009B01AC01BD01CF010895EE0FFF1F0590E6
:1016E000F491E02D099481E090E0F8940C94780B4B
:0416F000F894FFCF9C
:1016F40053756E6461790000000000004D6F6E64E4
:10170400617900000000000054756573646179001C
:10171400000000005765646E657364617900000021
:1017240054687572736461790000000046726964DC
:10173400617900000000000053617475726461797E
:101744000000000000000000D801380165012A02F1
:10175400960174018801000000002903FC0258036B
:10176400D202F502E202D3020D0A00202800292049
:10177400002073696E6365206D69646E69676874BF
:1017840020312F312F31393730203D200073203D57
:1017940020006400746865207175652069733A20BF
:1017A40000436F756C646E27742066696E64205202
:1017B400544300525443206973204E4F5420727591
:1017C4006E6E696E672C206C657427732073657464
:0C17D400207468652074696D65210000B8
:00000001FF
