:100000000C9468000C9490000C9490000C94900058
:100010000C9490000C9490000C9490000C94900020
:100020000C9490000C9490000C9490000C94900010
:100030000C9490000C9490000C9490000C94900000
:100040000C94AA040C9490000C9478040C94520420
:100050000C9490000C9490000C9490000C949000E0
:100060000C94F4040C94900031303A33353A353323
:10007000004A756C2032372032303230001F1C1F8E
:100080001E1F1E1F1F1E1F1E00000000250028002F
:100090002B00040404040404040402020202020209
:1000A000030303030303010204081020408001023C
:1000B00004081020010204081020000000080002BB
:1000C0000100000304070000000000000000130608
:1000D00011241FBECFEFD8E0DEBFCDBF23E0A2EEDC
:1000E000B1E001C01D92A834B207E1F711E0A0E031
:1000F000B1E0E4E6F4E102C005900D92A23EB10742
:10010000D9F710E0C8E6D0E004C02197FE010E94B4
:10011000250AC736D107C9F70E944C060C94300A4D
:100120000C940000982F20919E0281E0213208F06B
:1001300043C080917A028111FCCF80919D0232E010
:1001400030937A02909379029FEF90937802109205
:10015000770220937602ADE7B2E0E6E5F2E090E0C8
:10016000291331C01092550290915502880F892BA6
:100170008093550280915402813049F510925402C7
:10018000809155028093BB008091BC0083FDF8CF25
:1001900085EC8093BC0080917A028230E1F38091FB
:1001A00078028F3FB1F0809178028032A1F0809187
:1001B0007802803391F084E010927C0210929E02CB
:1001C00010927B0208953D9131939F5FC9CF85EED8
:1001D000E0CF80E0F1CF82E0EFCF83E0EDCF90E0A1
:1001E000FC01E654FF4F2491FC01EA55FF4F349186
:1001F000FC01EE56FF4FE491EE23B1F0222339F0DB
:100200002330E9F090F4213001F1223011F1F0E0D7
:10021000EE0FFF1FE857FF4FA591B4918FB7F894E9
:10022000EC913E2B3C938FBF08952730A9F02830E6
:10023000C9F0243061F7809180008F7D03C08091E8
:1002400080008F7780938000E2CF84B58F7784BD64
:10025000DECF84B58F7DFBCF8091B0008F77809308
:10026000B000D5CF8091B0008F7DF9CF089508956B
:10027000AF92BF92CF92DF92EF92FF920F931F93B4
:10028000CF93DF936C017B018B01040F151FEB01F2
:100290005E01AE18BF08C017D10759F06991D601A9
:1002A000ED91FC910190F081E02DC6010995892B1B
:1002B00079F7C501DF91CF911F910F91FF90EF90DA
:1002C000DF90CF90BF90AF900895FC01538D448D87
:1002D000252F30E0842F90E0821B930B541710F0F1
:1002E000CF96089501970895FC01918D828D9817FE
:1002F00061F0A28DAE0FBF2FB11D5D968C91928DD6
:100300009F5F9F73928F90E008958FEF9FEF089506
:10031000FC01918D828D981731F0828DE80FF11DCF
:10032000858D90E008958FEF9FEF0895FC01918DEA
:10033000228D892F90E0805C9F4F821B91098F73E3
:10034000992708958FE992E00E94960121E0892B78
:1003500009F420E0822F089580E090E0892B29F0B5
:100360000E94A20181110C9400000895FC01A48D4B
:10037000A80FB92FB11DA35ABF4F2C91848D90E0C7
:1003800001968F739927848FA689B7892C93A089AA
:10039000B1898C91837080648C93938D848D981334
:1003A00006C00288F389E02D80818F7D80830895C7
:1003B000EF92FF920F931F93CF93DF93EC0181E0B5
:1003C000888F9B8D8C8D98131AC0E889F98980815C
:1003D00085FF15C09FB7F894EE89FF896083E8898F
:1003E000F98980818370806480839FBF81E090E081
:1003F000DF91CF911F910F91FF90EF900895F62E0E
:100400000B8D10E00F5F1F4F0F731127E02E8C8DA7
:100410008E110CC00FB607FCFACFE889F9898081EC
:1004200085FFF5CFCE010E94B601F1CFEB8DEC0F29
:10043000FD2FF11DE35AFF4FF0829FB7F8940B8F09
:10044000EA89FB8980818062CFCF682F8FE992E0B3
:100450000C94D801CF93DF93EC01888D8823B9F0F9
:10046000AA89BB89E889F9898C9185FD03C08081BF
:1004700086FD0DC00FB607FCF7CF8C9185FFF2CF3C
:10048000808185FFEDCFCE010E94B601E9CFDF91DB
:10049000CF9108953FB7F89480912A0290912B0252
:1004A000A0912C02B0912D0226B5A89B05C02F3F2C
:1004B00019F00196A11DB11D3FBFBA2FA92F982F8A
:1004C0008827BC01CD01620F711D811D911D42E085
:1004D000660F771F881F991F4A95D1F7089585EDFC
:1004E0008093BC008091BC0084FDFCCF10927A0206
:1004F000089520910202260F3327331F2132310540
:10050000ECF420917A02FC0190E080E0243069F064
:1005100082E00895A09102022191AC014E515E4FFC
:10052000A40FB52FB11D2C930196861798F38091D7
:100530000202680F6093020280E0089581E008954E
:100540000895E091330280913202E81730F4F0E030
:10055000EC5CFD4F808190E008958FEF9FEF089550
:1005600090913302809132022FEF3FEF981748F4B9
:10057000E92FF0E0EC5CFD4F208130E09F5F90932D
:100580003302C90108958091320290913302891B90
:10059000990B0895CF92DF92EF92FF920F931F93E2
:1005A000CF93DF937C01CB018A0120917B02222330
:1005B00089F0EB016B01C40ED51ECC15DD0569F089
:1005C0006991D701ED91FC910190F081E02DC70177
:1005D0000995F3CF642F0E947902C801DF91CF9172
:1005E0001F910F91FF90EF90DF90CF900895CF93E0
:1005F000DF931F92CDB7DEB7698320917B02222360
:10060000F9F020919E02203258F021E030E0FC0108
:100610003383228390E080E00F90DF91CF910895A3
:1006200080917C02E82FF0E0E358FD4F99819083A0
:100630008F5F80937C0280939E0281E090E0ECCFFC
:1006400061E0CE0101960E947902F7CF90E080E050
:100650000895FC01908190539A3008F090E08181D8
:1006600080532AE0929F800D11240895DC0150E010
:10067000EDE7F0E081E0861730F49491490F511DC9
:100680008F5F3196F8CF633038F0CD0183709927B2
:10069000892B11F44F5F5F4F9D012D5F3F4F3695C2
:1006A0002795369527956DE671E0A69FC001A79F17
:1006B000900DB69F900D11240197820F931F840F08
:1006C000951F0895EF92FF920F931F93CF93DF939F
:1006D000EC0188814A81698190E00E9436039C0187
:1006E000A8E1B0E00E94D4092B817B018C01E20ECD
:1006F000F11C011D111DA8019701ACE3B0E00E949F
:10070000C9092C817B018C01E20EF11C011D111D18
:10071000A80197010E94C909AB01BC019D81892FE5
:1007200090E0B0E0A0E080589C4BA249B74C8A0111
:100730009B01080F191F2A1F3B1FC901B801DF9138
:10074000CF911F910F91FF90EF900895FC010190C0
:100750000020E9F73197AF01481B590BBC018FE925
:1007600092E00C9438018F929F92AF92BF920F93B8
:100770001F93CF93DF93CDB7DEB7A1970FB6F89451
:10078000DEBF0FBECDBF19A2423008F44AE08E0191
:100790000F5D1F4F842E912CB12CA12CA50194012B
:1007A0000E94030AE62FB901CA01EA30F4F4E05DC1
:1007B000D801EE938D01232B242B252B79F790E084
:1007C00080E0109719F0CD010E94A603A1960FB604
:1007D000F894DEBF0FBECDBFDF91CF911F910F9177
:1007E000BF90AF909F908F900895E95CE1CFCF9339
:1007F000DF930E94A603EC0188E791E00E94A60324
:100800008C0F9D1FDF91CF910895682F70E090E0CD
:1008100080E04AE00C94B30390917A029111FCCFEE
:10082000282F91E090937A02909379023FEF3093D2
:10083000780210927702380F309376029093550227
:1008400090915502906D9093550290915402913081
:1008500019F510925402909155029093BB0090911B
:10086000BC0093FDF8CF95EC9093BC0090917A0278
:100870009130E1F390917702981710F4209177026C
:10088000A6E5B2E0E4E3F2E080E0821307C0109254
:10089000330280933202089595EEE6CF9D919193B5
:1008A0008F5FF3CF1F920F920FB60F9211242F93E9
:1008B0003F934F935F936F937F938F939F93AF93E8
:1008C000BF93EF93FF938FE992E00E94B601FF91EF
:1008D000EF91BF91AF919F918F917F916F915F91B8
:1008E0004F913F912F910F900FBE0F901F90189531
:1008F0001F920F920FB60F9211242F938F939F93F5
:10090000EF93FF93E091AF02F091B0028081E0910C
:10091000B502F091B60282FD1BC090818091B802B1
:100920008F5F8F732091B902821741F0E091B80276
:10093000F0E0E156FD4F958F8093B802FF91EF9163
:100940009F918F912F910F900FBE0F901F90189530
:100950008081F4CF1F920F920FB60F9211242F9324
:100960003F938F939F93AF93BF9380912602909173
:100970002702A0912802B09129023091250223E09C
:10098000230F2D3758F50196A11DB11D2093250287
:100990008093260290932702A0932802B093290205
:1009A00080912A0290912B02A0912C02B0912D02ED
:1009B0000196A11DB11D80932A0290932B02A09352
:1009C0002C02B0932D02BF91AF919F918F913F91D7
:1009D0002F910F900FBE0F901F90189526E8230FB0
:1009E0000296A11DB11DD2CF1F920F920FB60F928A
:1009F00011242F933F934F935F936F937F938F9324
:100A00009F93AF93BF93EF93FF938091B900887F3B
:100A1000803609F44AC0F0F5883209F4A7C018F509
:100A2000803109F49BC0B8F4882309F4F9C08830F8
:100A300009F494C0FF91EF91BF91AF919F918F9175
:100A40007F916F915F914F913F912F910F900FBECA
:100A50000F901F901895883109F488C0803251F7A3
:100A60008093780214C0803409F49DC040F4803330
:100A7000B9F38833F9F68093780285ECB0C08035FD
:100A800009F485C0883509F496C0883499F60E9427
:100A90006F02D0CF883909F48CC038F5883729F037
:100AA00050F4883611F0803729F683E080937A027B
:100AB0001092240257C0883809F47BC0803919F09D
:100AC000803809F0B7CF80912402803208F071C0DD
:100AD000E091240281E08E0F809324028091BB007C
:100AE000F0E0EC5FFD4F80833DC0803B39F0E0F4E7
:100AF000803A09F479C0883A09F09CCF84E0809369
:100B00007A021092030210920202E0913002F091F8
:100B1000310209958091020281110FC081E080931A
:100B200002021092E20109C0803C09F4A6CF883C81
:100B300009F4A3CF883B09F07DCFE091030281E067
:100B40008E0F80930302F0E0EE51FE4F8081809380
:100B5000BB00909103028091020229C0809155024E
:100B60008093BB0085EC8093BC0064CF90917702AA
:100B700080917602981758F5E091770281E08E0F08
:100B800080937702F0E0EA5AFD4F8081E9CFE0914F
:100B9000770281E08E0F809377028091BB00F0E0B6
:100BA000EA5AFD4F808390917702809176029817E0
:100BB000C8F285E8D8CFE091770281E08E0F80936C
:100BC00077028091BB00F0E0EA5AFD4F808380916C
:100BD000790281115CCF81E08093540284EA809392
:100BE000BC0010927A0226CF85EC8093BC00109254
:100BF0007A0280912402803230F4E0912402F0E005
:100C0000EC5FFD4F10826091240270E0E0912E02B3
:100C1000F0912F0284E092E00995109224020ACF0D
:100C20001092780234CFEFE9F2E01382128288EE5C
:100C300093E0A0E0B0E084839583A683B78328E5A2
:100C400031E03183208325EC30E03587248724ECA4
:100C500030E03787268720EC30E0318B208B21EC89
:100C600030E0338B228B22EC30E0358B248B26EC6A
:100C700030E0378B268B118E128E138E148EECE3A0
:100C8000F3E01382128284839583A683B7838AE676
:100C900091E0918380830895CF93DF93CDB7DEB742
:100CA00067970FB6F894DEBF0FBECDBF789484B5BA
:100CB000826084BD84B5816084BD85B5826085BD58
:100CC00085B5816085BD80916E00816080936E00E6
:100CD00010928100809181008260809381008091D8
:100CE0008100816080938100809180008160809389
:100CF00080008091B10084608093B1008091B00049
:100D000081608093B00080917A00846080937A0043
:100D100080917A00826080937A0080917A0081606D
:100D200080937A0080917A00806880937A00109294
:100D3000C100E091AF02F091B00282E08083E091C7
:100D4000AF02F091B0021082E091AB02F091AC02E0
:100D50001082E091AD02F091AE0280E180831092AA
:100D6000B702E091B302F091B40286E08083E09193
:100D7000B102F091B202808180618083E091B10282
:100D8000F091B202808188608083E091B102F0919D
:100D9000B202808180688083E091B102F091B2025A
:100DA00080818F7D808310923302109232021092E4
:100DB0007C0210929E0210927A0201E00093790266
:100DC0001092540282E10E94EF0083E10E94EF0042
:100DD0008091B9008E7F8093B9008091B9008D7F9A
:100DE0008093B90088E48093B80085E48093BC00C8
:100DF00086E391E0909331028093300287E391E0A3
:100E000090932F0280932E0200937B0288E68093BA
:100E10009D0210927C0210929E0281E00E9492003C
:100E2000811148C000937B0210927C0210929E02B6
:100E300060E08CE393E00E94F70281E00E94920060
:100E400081E090E00E940C048CE393E00E94B002E9
:100E500087FFC5C08DE891E00E94F7034BE050E0AA
:100E600061E770E0CE0101960E94C009CE010A96AA
:100E70000E942903F82EE981E154E33108F02DC0E6
:100E80000E2E000CFF0BE95BF84F0C94250ADC08D2
:100E90006D076D07F0086D07F2086D076D076D07A8
:100EA00064076D076D07E308EE08EC086D076D0732
:100EB0006D07EA088BE791E00E94F7038FE992E063
:100EC0000E942A020E942B0A8A8111E0813629F0B1
:100ED0008B8116E08E3609F017E0CE0105960E9450
:100EE0002903E82E48E050E068E670E0CE01019664
:100EF0000E94C009CE0101960E942903D82ECE017E
:100F000004960E942903C82ECE0107960E94290349
:100F1000B82E81E080937B0288E680939D02109238
:100F20007C0210929E0260E08CE393E00E94F70244
:100F30000AE08B2D602F0E94E309682F660F680F6F
:100F4000660F6B0D8CE393E00E94F7028C2D602FEF
:100F50000E94E309682F660F680F660F6C0D8CE323
:100F600093E00E94F7028D2D602F0E94E309682F05
:100F7000660F680F660F6D0D8CE393E00E94F70219
:100F800060E08CE393E00E94F7028E2D602F0E94B8
:100F9000E309682F660F680F660F6E0D8CE393E010
:100FA0000E94F702812F602F0E94E309682F660FCD
:100FB000680F660F610F8CE393E00E94F7028F2D9C
:100FC000602F0E94E309682F660F680F660F6F0D90
:100FD0008CE393E00E94F70281E00E949200F0E827
:100FE0004F2EF1E55F2E66246394712CA3E92A2E1F
:100FF000AEEF3A2E00E010E021E020937B0288E67D
:1010000080939D0210927C0210929E0260E08CE31D
:1010100093E00E94F70281E00E94920087E090E056
:101020000E940C048CE393E00E94B0028F77282F7B
:1010300030E094E0359527959A95E1F7922F990F36
:10104000990FF22EF91AFF0CF80E8CE393E00E9430
:10105000B0029C0144E0359527954A95E1F72F7041
:101060003327922F990F990FE22EE91AEE0CE80E12
:101070008CE393E00E94B0029C0154E035952795E3
:101080005A95E1F72F703327922F990F990FD22E8F
:10109000D91ADD0CD80E8CE393E00E94B0028CE3E9
:1010A00093E00E94B0029C0164E0359527956A9513
:1010B000E1F72F703327922F990F990FC22EC91A7B
:1010C000CC0CC80E8CE393E00E94B0029C0174E04B
:1010D000359527957A95E1F72F703327922F990F41
:1010E000990FB22EB91ABB0CB80E8CE393E00E9494
:1010F000B0029C01E4E035952795EA95E1F72F7061
:101100003327922F990F990F291B220F820F8A8B59
:10111000BB8ACC8ADD8AEE8AFF8ACE0142960E9483
:1011200062036B017C0122EFD21A2BE6E20A28E36C
:10113000F20AC701B6012CE330E040E050E00E9423
:10114000030AB62E698BCA01B9012CE330E040E0F6
:1011500050E00E94030AA62E688BC701B60120E169
:101160003EE040E050E00E94030ACA01B90128E1D4
:1011700030E040E050E00E94030A962E6F87C701DE
:10118000B601A30192010E94030A60E0962F9370BA
:1011900041E050E011F050E040E081E0860FFA01BC
:1011A000E359FE4F2E173F07F8F0B101641B750B92
:1011B000260F371F682FEACF8B8114E0823709F49E
:1011C0008CCE18E08ACE8B8113E0823709F485CE6D
:1011D00015E083CE19E081CE1AE07FCE1BE07DCEF4
:1011E0001CE07BCE12E079CE6C87EDE7F0E081E089
:1011F0008C3071F04491911103C0823009F44F5F3B
:1012000050E071E0780F31962417350708F0B4C02C
:101210008D872F5F2E8769838A832B839C82AD8283
:10122000BE8270E06053784F072E000C880B990B3C
:101230004AE00E94B3038FE20E9425028A810E9445
:1012400005048FE20E9425028B810E94050485EB34
:1012500091E00E94A60389814B816A8190E00E94FF
:101260003603069667E070E00E94EF094CE0489F65
:101270009001499F300D1124C90180509F4F0E9459
:10128000A60388EB91E00E94A6038C810E940504CE
:101290008AE30E9425028D810E9405048AE30E9450
:1012A00025028E810E94050488E791E00E94A60332
:1012B0008BEB91E00E94A603CE0101960E9462038F
:1012C0004AE00E94B30387ED91E00E94A603CE019D
:1012D00001960E946203A30192010E94030ACA01BF
:1012E000B9014AE00E94B3038CED91E00E94F7033C
:1012F000CE0142960E9462036B017C01CE010C96E6
:101300000E946203C616D706E806F90620F48EEDA1
:1013100091E00E94F7030E944A024B015C0180EDBC
:10132000C82E87E0D82EE12CF12C0E944A026819C1
:1013300079098A099B09683E734081059105A8F3E4
:1013400071E0C71AD108E108F10888EE880E83E041
:10135000981EA11CB11CC114D104E104F10429F7A9
:101360000115110509F448CE0E94A201882309F451
:1013700043CE0E94000040CE241B350B872F38CF70
:10138000FB01DC0102C005900D9241505040D8F79E
:1013900008950E94D409A59F900DB49F900DA49F1D
:1013A000800D911D11240895A29FB001B39FC0012B
:1013B000A39F700D811D1124911DB29F700D811D81
:1013C0001124911D0895991B79E004C0991F961767
:1013D00008F0961B881F7A95C9F780950895AA1B77
:1013E000BB1B51E107C0AA1FBB1FA617B70710F010
:1013F000A61BB70B881F991F5A95A9F78095909542
:10140000BC01CD010895A1E21A2EAA1BBB1BFD0150
:101410000DC0AA1FBB1FEE1FFF1FA217B307E407D3
:10142000F50720F0A21BB30BE40BF50B661F771F2B
:10143000881F991F1A9469F760957095809590950B
:101440009B01AC01BD01CF010895EE0FFF1F059078
:10145000F491E02D099481E090E0F8940C94300A26
:04146000F894FFCF2E
:1014640053756E6461790000000000004D6F6E6476
:1014740061790000000000005475657364617900AF
:10148400000000005765646E6573646179000000B4
:10149400546875727364617900000000467269646F
:1014A4006179000000000000536174757264617911
:1014B4000000000000000000D801380165012A0284
:1014C40096017401880100000000F702CA02260395
:1014D400A002C302B002A1020D0A00436F756C643E
:1014E4006E27742066696E6420525443005254433C
:1014F400206973204E4F542072756E6E696E672C8E
:10150400206C657427732073657420746865207477
:10151400696D6521002028002920002073696E630D
:1015240065206D69646E6967687420312F312F31CD
:10153400393730203D200073203D20006400796558
:02154400730032
:00000001FF
