:020000040000FA
:100000000C9474000C949C000C949C000C949C0028
:100010000C949C000C949C000C949C000C949C00F0
:100020000C949C000C949C000C949C000C949C00E0
:100030000C949C000C949C000C949C000C949C00D0
:100040000C94A50A0C949C000C94730A0C944D0A11
:100050000C949C000C949C000C949C000C949C00B0
:100060000C94EF0A0C949C001F1C1F1E1F1E1F1FC8
:100070001E1F1E00000000250028002B00040404A1
:100080000404040404020202020202030303030341
:10009000030102040810204080010204081020011E
:1000A0000204081020000000080002010000030400
:1000B00007000000000000000031303A35363A32C7
:1000C0003300466562202038203230323100313032
:1000D0003A35363A323300466562202038203230D5
:1000E000323100000E0C580F11241FBECFEFD8E0A4
:1000F000DEBFCDBF24E0A2E9B1E001C01D92AA3E5F
:10010000B207E1F711E0A0E0B1E0E2E8F6E202C0F8
:1001100005900D92A239B107D9F710E0C3E7D0E0FE
:1001200004C02197FE010E943311C237D107C9F7DD
:100130000E94800C0C9434130C94000008950895D0
:100140000895AF92BF92CF92DF92EF92FF920F93FA
:100150001F93CF93DF936C017B018B01040F151F5D
:10016000EB015E01AE18BF08C017D10759F06991C5
:10017000D601ED91FC910190F081E02DC601099529
:10018000892B79F7C501DF91CF911F910F91FF90D6
:10019000EF90DF90CF90BF90AF900895FC01538D0A
:1001A000448D252F30E0842F90E0821B930B541751
:1001B00010F0CF96089501970895FC01918D828DDE
:1001C000981761F0A28DAE0FBF2FB11D5D968C9177
:1001D000928D9F5F9F73928F90E008958FEF9FEFB6
:1001E0000895FC01918D828D981731F0828DE80F72
:1001F000F11D858D90E008958FEF9FEF0895FC012C
:10020000918D228D892F90E0805C9F4F821B9109F8
:100210008F739927089587E592E00E94FF0021E0FF
:10022000892B09F420E0822F089580E090E0892B4B
:1002300029F00E940B0181110C9400000895FC012B
:10024000A48DA80FB92FB11DA35ABF4F2C91848D37
:1002500090E001968F739927848FA689B7892C9394
:10026000A089B1898C91837080648C93938D848DE7
:10027000981306C00288F389E02D80818F7D8083EA
:100280000895EF92FF920F931F93CF93DF93EC01AA
:1002900081E0888F9B8D8C8D98131AC0E889F9892D
:1002A000808185FF15C09FB7F894EE89FF89608330
:1002B000E889F98980818370806480839FBF81E0B1
:1002C00090E0DF91CF911F910F91FF90EF900895F3
:1002D000F62E0B8D10E00F5F1F4F0F731127E02ECE
:1002E0008C8D8E110CC00FB607FCFACFE889F98906
:1002F000808185FFF5CFCE010E941F01F1CFEB8DEC
:10030000EC0FFD2FF11DE35AFF4FF0829FB7F894D9
:100310000B8FEA89FB8980818062CFCFCF93DF93F7
:10032000EC01888D8823B9F0AA89BB89E889F9890D
:100330008C9185FD03C0808186FD0DC00FB607FC42
:10034000F7CF8C9185FFF2CF808185FFEDCFCE0175
:100350000E941F01E9CFDF91CF91089590E0FC0149
:10036000EB55FF4F2491FC01EF56FF4F3491FC01F8
:10037000E358FF4FE491EE23C9F0222339F02330F4
:1003800001F1A8F4213019F1223029F1F0E0EE0F4B
:10039000FF1FED58FF4FA591B4918FB7F894EC91E2
:1003A000611126C030953E233C938FBF08952730BE
:1003B000A9F02830C9F0243049F7809180008F7D62
:1003C00003C0809180008F7780938000DFCF84B559
:1003D0008F7784BDDBCF84B58F7DFBCF8091B0005C
:1003E0008F778093B000D2CF8091B0008F7DF9CF0E
:1003F0003E2BDACF3FB7F8948091DB019091DC017E
:10040000A091DD01B091DE0126B5A89B05C02F3F6C
:1004100019F00196A11DB11D3FBFBA2FA92F982F2A
:100420008827BC01CD01620F711D811D911D42E025
:10043000660F771F881F991F4A95D1F708958F92ED
:100440009F92AF92BF92CF92DF92EF92FF926B0199
:100450007C010E94FA014B015C01C114D104E1044A
:10046000F104B9F00E94FA01681979098A099B0917
:10047000683E73408105910580F321E0C21AD108DE
:10048000E108F10888EE880E83E0981EA11CB11CDB
:10049000E4CFFF90EF90DF90CF90BF90AF909F9010
:1004A0008F9008952091B301260F3327331F2132F7
:1004B0003105ECF420912D02FC0190E080E0243025
:1004C00069F082E00895A091B3012191AC014D56ED
:1004D0005E4FA40FB52FB11D2C930196861798F38C
:1004E0008091B301680F6093B30180E0089581E0CB
:1004F000089510922D0281E080932C021092070241
:1005000061E082E10E94AE0161E083E10E94AE0100
:10051000E9EBF0E080818E7F808380818D7F808316
:1005200088E48093B80085E48093BC000895CF935D
:10053000DF9391E0909392018823B9F0C091B800C5
:10054000D091BA008091BC008A7B8093BC0060E0AF
:1005500082E10E94AE0160E083E10E94AE010E9450
:100560007902D093BA00C093B800DF91CF9108957B
:100570008F929F92AF92BF92CF92DF92EF92FF92B3
:100580000F931F93CF93DF93D0915602D13208F08F
:10059000D7C0182FC09155020E94FA016B017C014F
:1005A00080912D0281116BC082E080932D02109307
:1005B0002C028FEF80932B0210922A02D0932902F3
:1005C000A5E3B2E0E9E0F2E080E0D81391C0109238
:1005D000080280910802CC0FC82BC09308028091BA
:1005E0000702813009F088C0109207020E94FA01C8
:1005F0006B017C01809108028093BB0080912F02E7
:1006000090913002A0913102B0913202892B8A2B55
:100610008B2BA1F00E94FA0100912F021091300261
:1006200020913102309132026C197D098E099F09A7
:10063000061717072807390708F442C08091BC0045
:1006400083FDD8CF85EC8093BC000E94FA016B013A
:100650007C0180912D02823009F450C080912B02E0
:100660008F3F09F46FC080912B02803209F46CC077
:1006700080912B02803309F469C084E026C0809108
:100680002F0290913002A0913102B0913202892B59
:100690008A2B8B2B09F484CF0E94FA0180902F02C1
:1006A00090903002A0903102B09032026C197D0916
:1006B0008E099F0986169706A806B90608F070CF1E
:1006C00080912E020E94970285E0109234021092CF
:1006D000560210923302DF91CF911F910F91FF903C
:1006E000EF90DF90CF90BF90AF909F908F90089544
:1006F0009D9191938F5F69CF85EEA5CF80912F0259
:1007000090913002A0913102B0913202892B8A2B54
:100710008B2B09F49ECF0E94FA0100912F021091B9
:10072000300220913102309132026C197D098E091C
:100730009F09061717072807390708F08ACFC0CF87
:1007400081E0C3CF80E0C1CF82E0BFCF83E0BDCFE7
:10075000CF92DF92EF92FF920F931F93CF93DF938D
:10076000D82FC62F613208F098C00E94FA016B01A1
:100770007C0180912D0281116BC081E080932D025C
:1007800080932C029FEF90932B0210922A029C0FD1
:10079000909329028093080280910802DD0FD82BE4
:1007A000D093080280910702813009F078C010923E
:1007B00007020E94FA016B017C018091080280937C
:1007C000BB0080912F0290913002A0913102B09134
:1007D0003202892B8A2B8B2BA1F00E94FA01009107
:1007E0002F021091300220913102309132026C19A7
:1007F0007D098E099F09061717072807390708F48E
:1008000048C08091BC0083FDD8CF85EC8093BC00AC
:100810000E94FA016B017C0180912D02813009F464
:1008200040C080912A028C1710F4C0912A02E9E09E
:10083000F2E0A7EEB1E080E08C1355C08C2FDF9181
:10084000CF911F910F91FF90EF90DF90CF9008957F
:1008500080912F0290913002A0913102B09132022A
:10086000892B8A2B8B2B09F484CF0E94FA010091EB
:100870002F021091300220913102309132026C1916
:100880007D098E099F09061717072807390708F001
:1008900070CF80912E020E949702C0E0CFCF85EEEC
:1008A000B5CF80912F0290913002A0913102B0918A
:1008B0003202892B8A2B8B2B09F4AECF0E94FA01CE
:1008C00000912F02109130022091310230913202BA
:1008D0006C197D098E099F09061717072807390724
:1008E00008F09ACFD6CF91919D938F5FA5CF0895B1
:1008F000E091E4018091E301E81730F4F0E0E95180
:10090000FE4F808190E008958FEF9FEF08959091C2
:10091000E4018091E3012FEF3FEF981748F4E92FAE
:10092000F0E0E951FE4F208130E09F5F9093E401B9
:10093000C90108958091E3019091E401891B990B0D
:100940000895CF92DF92EF92FF920F931F93CF9370
:10095000DF937C01CB018A0120913302222389F0AD
:10096000EB016B01C40ED51ECC15DD0569F0699154
:10097000D701ED91FC910190F081E02DC70109951F
:10098000F3CF642F0E945202C801DF91CF911F91D3
:100990000F91FF90EF90DF90CF900895CF93DF936A
:1009A0001F92CDB7DEB76983209133022223F9F07D
:1009B00020915602203258F021E030E0FC013383D0
:1009C000228390E080E00F90DF91CF910895809195
:1009D0003402E82FF0E0EB5CFD4F998190838F5F4C
:1009E000809334028093560281E090E0ECCF61E086
:1009F000CE0101960E945202F7CF90E080E0089568
:100A00001F93CF93DF93EC0181E08093330288E65C
:100A100080935502109234021092560260E084EFE7
:100A200092E00E94CE042D811AE0822F612F0E9455
:100A30000511682F660F680F660F620F84EF92E052
:100A40000E94CE042C81822F612F0E940511682FF5
:100A5000660F680F660F620F84EF92E00E94CE046B
:100A60002B81822F612F0E940511682F660F680F5E
:100A7000660F620F84EF92E00E94CE0460E084EF84
:100A800092E00E94CE042A81822F612F0E940511DC
:100A9000682F660F680F660F620F84EF92E00E9466
:100AA000CE042981822F612F0E940511682F660FC5
:100AB000680F660F620F84EF92E00E94CE042881D7
:100AC000822F612F0E940511682F660F680F660F35
:100AD000620F84EF92E00E94CE0481E0DF91CF911B
:100AE0001F910C94B802EF92FF920F931F93CF9334
:100AF000DF93EC0169813881432F50E02A81822FF6
:100B000090E0E8E6F0E021E0261730F47491870FDA
:100B1000911D2F5F3196F8CF633018F0337009F4D0
:100B200001966DE671E0469F9001479F300D569FFC
:100B3000300D1124215031094D5F5F4F5695479577
:100B400056954795240F351F280F391FA8E1B0E0AF
:100B50000E9484102B817B018C01E20EF11C011D8F
:100B6000111DA8019701ACE3B0E00E9442102C8156
:100B70007B018C01E20EF11C011D111DA8019701E2
:100B80000E944210AB01BC019D81892F90E0B0E032
:100B9000A0E080589C4BA249B74C8A019B01080FEA
:100BA000191F2A1F3B1FC901B801DF91CF911F9167
:100BB0000F91FF90EF900895CF92DF92EF92FF9206
:100BC000CF93DF93EB010E9473056B017C01CE0193
:100BD0000E94730521E0C616D706E806F90608F05C
:100BE00020E0822FDF91CF91FF90EF90DF90CF90A8
:100BF0000895FC01908190539A3008F090E0818133
:100C000080532AE0929F800D11240895299ABC01F7
:100C1000990F880B990B0E941F0229980895289A12
:100C2000BC01990F880B990B0E941F022898089508
:100C30005F9ABC01990F880B990B0E941F025F9865
:100C400008955E9ABC01990F880B990B0E941F02B0
:100C50005E980895CF92DF92EF92FF92CF93C82FC4
:100C60008FEEC82E8EEED82EED2C83E4F82E20E0E9
:100C700030E040E85FE3C701B6010E94001187FD44
:100C80006BC085E090E0CC2309F45AC00E94210695
:100C900020E030E040E85FE3C701B6010E94931016
:100CA0006B017C0120E030E040E85FE30E9400112E
:100CB00087FD11C085E090E0CC2309F444C00E9478
:100CC000180620E030E040E85FE3C701B6010E946B
:100CD00093106B017C0120E030E040E85FE3C70146
:100CE000B6010E94001187FD10C085E090E0CC2382
:100CF00069F10E940F0620E030E040E85FE3C701A1
:100D0000B6010E9493106B017C0120E030E040E8C6
:100D10005FE3C701B6010E94001187FDA8CF85E0FF
:100D200090E0CC23B1F00E94060620E030E040E8DD
:100D30005FE3C701B6010E9493106B017C0197CF5E
:100D40000E940606A5CF0E940F06BBCF0E94180680
:100D5000D2CF0E942106E9CFCF91FF90EF90DF9094
:100D6000CF900895CF92DF92FF920F931F93CF936E
:100D7000DF936C0181E08093330288E68093550213
:100D8000109234021092560260E084EF92E00E94CA
:100D9000CE0481E00E94B80267E088E60E94A803C2
:100DA0001092E4018093E30184EF92E00E948704B3
:100DB0008F77282F30E094E0359527959A95E1F7C5
:100DC000922F990F990FC22FC91BCC0FC80F84EF18
:100DD00092E00E9487049C0144E0359527954A954E
:100DE000E1F72F703327922F990F990FD22FD91B2C
:100DF000DD0FD80F84EF92E00E9487049C0154E03D
:100E0000359527955A95E1F72F703327922F990F33
:100E1000990F122F191B110F180F84EF92E00E94E7
:100E2000870484EF92E00E9487049C0164E035957A
:100E300027956A95E1F72F703327922F990F990F15
:100E4000022F091B000F080F84EF92E00E94870415
:100E50009C0174E0359527957A95E1F72F7033273B
:100E6000922F990F990FF22EF91AFF0CF80E84EFBA
:100E700092E00E9487049C01E4E035952795EA956D
:100E8000E1F72F703327922F990F990F291B220F0B
:100E9000820FF6018083F18202831383D483C5839A
:100EA000C601DF91CF911F910F91FF90DF90CF90FE
:100EB0000895FC0101900020E9F73197AF01481B2C
:100EC000590BBC0187E592E00C94A100FC01248140
:100ED0003581232B39F421E0FB018081882349F0FF
:100EE00020E007C0808191810E94241321E0892B9A
:100EF000B9F7822F0895FC0180819181009711F04C
:100F00000C94D5110895EF92FF920F931F93CF93F6
:100F1000DF93EC017B018A0188819981009729F098
:100F20002A813B812417350788F4B8016F5F7F4F12
:100F30000E945E12009791F0998388831B830A8335
:100F40002C813D81232B11F4FC0110821D830C8325
:100F5000B701888199810E942D130CC088819981E5
:100F6000009711F00E94D511198218821D821C82EF
:100F70001B821A82CE01DF91CF911F910F91FF90BA
:100F8000EF900895CF93DF93EC01E0EEF4E08081E1
:100F90008D8B81818E8B82818F8B8381888F8481E1
:100FA000898F85818A8F1B8E1C8E1E8E1D8E18A2A6
:100FB0001F8E1AA219A250E040E06EE371E0CE014C
:100FC0004D960E9483071FA2DF91CF910895AF92A3
:100FD000BF92CF92DF92EF92FF920F931F93CF9326
:100FE000DF9300D000D000D0CDB7DEB78C0187E50D
:100FF00092E00E94FF00181619060CF07FC0F12C39
:10100000E12C87E592E00E94FF00892B79F484EFC0
:10101000E81681E0F806C1F161E070E080E090E060
:101020000E941F02EFEFEE1AFE0AEBCFF4EFEF166D
:10103000F1E0FF0649F187E592E00E94F100F80136
:10104000908198135BC087E592E00E94DD0081E00B
:10105000F801838F7801FFEFEF1AFF0A670185EF30
:10106000A82EBB24B39487E592E00E94FF00892B51
:1010700069F481E0A81AB10849F061E070E080E00D
:1010800090E00E941F02EFCF80E3D9CF87E592E086
:101090000E94DD00843209F056C01A8219821C8237
:1010A0001B821E821D82F60101900020E9F7319714
:1010B000AF014C195D09B601CE0101960E9483076C
:1010C000F801858D968D009761F169817A816115AE
:1010D000710529F1478D50A12D813E81421753079B
:1010E000F0F00E942D138D819E81F80192A381A3BF
:1010F0001E821D82CE0101960E947B0726960FB6A6
:10110000F894DEBF0FBECDBFDF91CF911F910F913D
:10111000FF90EF90DF90CF90BF90AF9008950E9426
:10112000D51189819A81F801968F858F8B819C8159
:1011300090A3878F8D819E8192A381A31A821982A9
:101140001C821B82D5CFF70181937F0188CF85ED6B
:101150008093BC0080912F0290913002A0913102C7
:10116000B09132020796A11DB11D23E0B695A79557
:10117000979587952A95D1F72091BC0024FD03C04F
:1011800010922D02089540912F02509130026091EB
:10119000310270913202452B462B472B69F30097A1
:1011A000A105B10541F025E32A95F1F7000001976B
:1011B000A109B109E1CF80912E020C949702EF9220
:1011C000FF920F931F93CF93DF93CDB7DEB72B978B
:1011D0000FB6F894DEBF0FBECDBF8C017A014BE095
:1011E00050E0CE0101960E94AF0FCE010A960E94F8
:1011F000F905F8018083E981E154E33118F50E2EF9
:10120000000CFF0BEA5FF64F0C94331154092209CE
:101210002209680922095209220922092209190909
:10122000220922095B0966096409220922092209A7
:1012300062098A81813691F18B818E3689F187E04E
:10124000F8018183CE0105960E94F905F801828399
:1012500048E050E0B701CE0101960E94AF0FCE01E9
:1012600001960E94F905F8018383CE0104960E943D
:10127000F905F8018483CE0107960E94F905F8016B
:1012800085832B960FB6F894DEBF0FBECDBFDF91DE
:10129000CF911F910F91FF90EF90089581E0D0CFF3
:1012A00086E0CECF82E0CCCF8B81823711F088E010
:1012B000C7CF84E0C5CF8B81823711F085E0C0CFE6
:1012C00083E0BECF89E0BCCF8AE0BACF8BE0B8CF55
:1012D0008CE0B6CF4F925F926F927F929F92AF92C7
:1012E000BF92CF92DF92EF92FF920F931F93CF9313
:1012F000DF93FC01238D21119BC0EC010E94E707C5
:101300000D8D1E8D60E070E0CB010115110519F007
:10131000C8010E94880F6BA37CA38DA39EA36B01C1
:101320007C01F0E8CF1AF3E4DF0AFDE6EF0AF8E308
:10133000FF0A8CE3482E512C612C712CC701B60199
:10134000A30192010E941111B62ECA01B901A30195
:1013500092010E941111A62EC701B60120E13EE0C4
:1013600040E050E00E941111CA01B90128E130E0CB
:1013700040E050E00E941111962EC701B60120E80E
:1013800031E541E050E00E94111150E0E3E9FEEF49
:10139000652F637081E090E011F090E080E041E023
:1013A000450FDC01A359BE4F2A173B07B0F4E8E60E
:1013B000F0E041E04C30C1F08491611103C0423053
:1013C00009F48F5F90E071E0740F319628173907A8
:1013D00058F0281B390B472FEDCFBF01681B790B45
:1013E000260F371F542FD4CF5D8B4E8B2F5F2F8B43
:1013F000988EA98EBA8E8B8D8823D1F049A15AA1DF
:10140000B80187E592E00E94A10080E891E0DF91B9
:10141000CF911F910F91FF90EF90DF90CF90BF90F1
:10142000AF909F907F906F905F904F900C94590772
:10143000DF91CF911F910F91FF90EF90DF90CF90B0
:10144000BF90AF909F907F906F905F904F90089566
:10145000CF93DF93EC01FC01319684E1DF011D9213
:101460008A95E9F786E0E0EEF4E0DE01559601901A
:101470000D928A95E1F71B8E1C8E50E040E06EE3E2
:1014800071E0CE014D960E9483071BA21CA21DA2F3
:101490001EA21FA2DF91CF9108951F920F920FB647
:1014A0000F9211242F933F934F935F936F937F93EA
:1014B0008F939F93AF93BF93EF93FF9387E592E052
:1014C0000E941F01FF91EF91BF91AF919F918F916A
:1014D0007F916F915F914F913F912F910F900FBE30
:1014E0000F901F9018951F920F920FB60F92112414
:1014F0002F938F939F93EF93FF93E0916702F09167
:1015000068028081E0916D02F0916E0282FD1BC045
:101510009081809170028F5F8F732091710282178A
:1015200041F0E0917002F0E0E95AFD4F958F809311
:101530007002FF91EF919F918F912F910F900FBEAD
:101540000F901F9018958081F4CF1F920F920FB6C5
:101550000F9211242F933F938F939F93AF93BF9339
:101560008091D7019091D801A091D901B091DA0171
:101570003091D60123E0230F2D3758F50196A11D98
:10158000B11D2093D6018093D7019093D801A093E9
:10159000D901B093DA018091DB019091DC01A09137
:1015A000DD01B091DE010196A11DB11D8093DB012B
:1015B0009093DC01A093DD01B093DE01BF91AF9168
:1015C0009F918F913F912F910F900FBE0F901F9081
:1015D000189526E8230F0296A11DB11DD2CF1F92A8
:1015E0000F920FB60F9211242F933F934F935F9357
:1015F0006F937F938F939F93AF93BF93EF93FF93DB
:101600008091B900887F803609F44AC0F0F58832AD
:1016100009F4A7C018F5803109F49BC0B8F48823F9
:1016200009F4F9C0883009F494C0FF91EF91BF919B
:10163000AF919F918F917F916F915F914F913F916A
:101640002F910F900FBE0F901F901895883109F4BD
:1016500088C0803251F780932B0214C0803409F483
:101660009DC040F48033B9F38833F9F680932B02A0
:1016700085ECB0C0803509F485C0883509F496C082
:10168000883499F60E94A708D0CF883909F48CC015
:1016900038F5883729F050F4883611F0803729F66C
:1016A00083E080932D021092D50157C0883809F449
:1016B0007BC0803919F0803809F0B7CF8091D5010F
:1016C000803208F071C0E091D50181E08E0F8093E7
:1016D000D5018091BB00F0E0EB54FE4F80833DC00C
:1016E000803B39F0E0F4803A09F479C0883A09F097
:1016F0009CCF84E080932D021092B4011092B3012C
:10170000E091E101F091E20109958091B30181112D
:101710000FC081E08093B3011092930109C0803C17
:1017200009F4A6CF883C09F4A3CF883B09F07DCF0C
:10173000E091B40181E08E0F8093B401F0E0ED56AA
:10174000FE4F80818093BB009091B4018091B301E2
:1017500029C0809108028093BB0085EC8093BC0077
:1017600064CF90912A0280912902981758F5E09150
:101770002A0281E08E0F80932A02F0E0E75FFD4F9E
:101780008081E9CFE0912A0281E08E0F80932A02C6
:101790008091BB00F0E0E75FFD4F808390912A02CB
:1017A000809129029817C8F285E8D8CFE0912A02E3
:1017B00081E08E0F80932A028091BB00F0E0E75F0A
:1017C000FD4F808380912C0281115CCF81E080935A
:1017D000070284EA8093BC0010922D0226CF85EC8C
:1017E0008093BC0010922D028091D501803230F49C
:1017F000E091D501F0E0EB54FE4F10826091D501ED
:1018000070E0E091DF01F091E00185EB91E0099556
:101810001092D5010ACF10922B0234CFE7E5F2E007
:101820001382128288EE93E0A0E0B0E08483958377
:10183000A683B7832AE031E03183208325EC30E0B2
:101840003587248724EC30E03787268720EC30E08A
:10185000318B208B21EC30E0338B228B22EC30E07B
:10186000358B248B26EC30E0378B268B118E128E35
:10187000138E148EE4EFF2E0138212828483958338
:10188000A683B7838CE191E091838083E0EEF4E05E
:1018900080EA808381E081838283138214821582AF
:1018A00088EB94E00E94C20780E994E00E94C2079E
:1018B00088E694E00E94C20780E494E00E94C20798
:1018C00088E194E00E94C20780EF93E00E94C20783
:1018D00088EC93E00E94C20780EA93E00E94C2076E
:1018E00088E793E00E94C20780E593E00E94C20768
:1018F00088E293E00E94C20780E093E00C94C20764
:10190000CF93DF9300D000D000D0CDB7DEB778946E
:1019100084B5826084BD84B5816084BD85B58260F4
:1019200085BD85B5816085BD80916E0081608093A5
:101930006E0010928100809181008260809381000E
:10194000809181008160809381008091800081601E
:10195000809380008091B10084608093B100809179
:10196000B00081608093B00080917A0084608093A1
:101970007A0080917A00826080937A0080917A0068
:10198000816080937A0080917A00806880937A00E9
:101990001092C1004EEC50E067ED70E0CE01019670
:1019A0000E94DF08CE0101960E940005259A2D981D
:1019B000E0916702F091680282E08083E091670223
:1019C000F09168021082E0916302F091640210824B
:1019D000E0916502F091660280E1808310926F02CF
:1019E000E0916B02F0916C0286E08083E0916902E5
:1019F000F0916A02808180618083E0916902F091B8
:101A00006A02808188608083E0916902F0916A02B5
:101A1000808180688083E0916902F0916A02808110
:101A20008F7D80838AB1806C8AB984B1836084B9E8
:101A30008BB18F738BB985B18C7F85B91092E4011E
:101A40001092E30110923402109256020E94790221
:101A50008EE990E09093E2018093E1018FE990E0BC
:101A60009093E0018093DF0181E08093330288E668
:101A70008093550281E00E94B802882361F08AE2D7
:101A800091E00E9459078CE391E00E94590787E595
:101A900092E00E948E0181E08093330288E6809379
:101AA0005502109234021092560260E084EF92E0E8
:101AB0000E94CE0481E00E94B80261E088E60E94A4
:101AC000A8031092E4018093E30184EF92E00E9466
:101AD000870487FF14C08FE391E00E9459078CE3CD
:101AE00091E00E94590749EB50E062EC70E0CE01B2
:101AF00001960E94DF08CE0101960E9400058EE645
:101B00008093900483E78093B80481E6809368040F
:101B100082E68093400483E68093180484E68093F1
:101B2000F00385E68093C80386E68093A00389E6E8
:101B30008093500384E78093780382E7809328039F
:101B40001092E50180E0E82E80E0F82E11E080E5BB
:101B500093E00E94280A80E593E00E94E70767E689
:101B600071E08DE693E00E946607882331F180E9F9
:101B700094E00E94280A88EB94E00E94280A88E6F4
:101B800094E00E94280A80E494E00E94280A88E1F8
:101B900094E00E94280A80EF93E00E94280A88ECD3
:101BA00093E00E94280A80EA93E00E94280A88E7CE
:101BB00093E00E94280A1092E50180E593E00E94DC
:101BC000280A87E592E00E94FF001816190694F58E
:101BD00080E994E00E946A0988EB94E00E946A0917
:101BE00088E694E00E946A0980E494E00E946A0911
:101BF00088E194E00E946A0980EF93E00E946A09FC
:101C000088EC93E00E946A0980EA93E00E946A09E6
:101C100088E793E00E94E7076DE671E085E993E0CD
:101C20000E946607882331F01093E50185EA94E06D
:101C30000E9400058091E501882309F4E4C08091A9
:101C4000DF0490918F04899FC001112420916704C3
:101C5000289FA001299F500D112480913F04849F4B
:101C60009001859F300D112440911704429FC001BF
:101C7000439F900D11244091EF03489F9001499F8D
:101C8000300D11244091C703429FC001439F900D26
:101C90001124892B09F0B7C08091E601882309F44B
:101CA000B2C088E293E00E94280A88E293E00E9492
:101CB000E70765E771E085E493E00E946607882303
:101CC00021F08CE791E00E945907CE0101960E9415
:101CD000B206BE016F5F7F4F8DEC94E00E94DC0581
:101CE000882349F08091DF04811105C081E00E94C2
:101CF0002A061093DF04CE0101960E94B206BE01AF
:101D00006F5F7F4F8DE794E00E94DC05882349F0E8
:101D100080918F04811105C081E00E942A061093F2
:101D20008F04CE0101960E94B206BE016F5F7F4F05
:101D300085E594E00E94DC05882349F080916704E2
:101D4000811105C081E00E942A0610936704CE012C
:101D500001960E94B206BE016F5F7F4F8DE294E054
:101D60000E94DC05882349F080913F04811105C061
:101D700081E00E942A0610933F04CE0101960E9442
:101D8000B206BE016F5F7F4F85E094E00E94DC05E4
:101D9000882349F080911704811105C081E00E94D9
:101DA0002A0610931704CE0101960E94B206BE01C6
:101DB0006F5F7F4F8DED93E00E94DC05882349F033
:101DC0008091EF03811105C081E00E942A061093E3
:101DD000EF03CE0101960E94B206BE016F5F7F4FF6
:101DE00085EB93E00E94DC05882309F423CF8091E2
:101DF000C70381111FCF81E00E942A061093C703F9
:101E00001092E60117CF88E293E00E94280A88E248
:101E100093E00E94E70765E771E085E493E00E94A4
:101E20006607882341F08091E601882381F08CE7E2
:101E300091E00E945907E114F10409F488CE0E9450
:101E40000B01882309F483CE0E94000080CE8EE728
:101E500091E00E94590781E00E942A0688E293E0FF
:101E60000E94280A62E871E085E493E00E94660718
:101E700081111BC080914303811105C088E293E06A
:101E80000E94E707F7CF67E871E085E493E00E94DE
:101E900066078111E0CF6CE871E085E493E00E9471
:101EA00066078823F9F280E0D7CF1093E601C3CF0D
:101EB0008DE193E00E947B0785E493E00E947B071D
:101EC0008DE693E00E947B0785E993E00E947B0703
:101ED0008DEB93E00E947B0785EE93E00E947B07E9
:101EE0008DE094E00E947B0785E394E00E947B07ED
:101EF0008DE594E00E947B0785E894E00E947B07D3
:101F00008DEA94E00E947B0785ED94E00C947B07BA
:101F10001F93FC0199278827BC01E8941191103286
:101F2000E9F3193010F01E30C8F31B3251F01D32A6
:101F300049F4689406C00E94B80F610F711D811D9D
:101F4000911D119110531A30B0F33EF49095809585
:101F5000709561957F4F8F4F9F4F1F910895FB01A3
:101F6000DC0102C005900D9241505040D8F7089511
:101F7000592F482F372F262F660F771F881F991F3D
:101F8000660F771F881F991F620F731F841F951F8D
:101F9000660F771F881F991F0895990F0008550F26
:101FA000AA0BE0E8FEEF16161706E807F907C0F0DF
:101FB00012161306E407F50798F0621B730B840BE7
:101FC000950B39F40A2661F0232B242B252B21F4C1
:101FD00008950A2609F4A140A6958FEF811D811D61
:101FE000089597F99F6780E870E060E008959FEF9B
:101FF00080EC089500240A941616170618060906A0
:10200000089500240A94121613061406050608956E
:10201000092E0394000C11F4882352F0BB0F40F4F6
:10202000BF2B11F460FF04C06F5F7F4F8F4F9F4F36
:10203000089557FD9058440F551F59F05F3F71F0B8
:102040004795880F97FB991F61F09F3F79F087951F
:102050000895121613061406551FF2CF4695F1DFA8
:1020600008C0161617061806991FF1CF8695710538
:10207000610508940895E894BB2766277727CB016C
:1020800097F908950E948410A59F900DB49F900D1C
:10209000A49F800D911D112408952F923F924F927D
:1020A0005F926F927F928F929F92AF92BF92CF92E8
:1020B000DF92EF92FF920F931F93CF93DF93CDB7F1
:1020C000DEB7CA1BDB0B0FB6F894DEBF0FBECDBF69
:1020D00009942A88398848885F846E847D848C843A
:1020E0009B84AA84B984C884DF80EE80FD800C8143
:1020F0001B81AA81B981CE0FD11D0FB6F894DEBF26
:102100000FBECDBFED010895A29FB001B39FC001E6
:10211000A39F700D811D1124911DB29F700D811D13
:102120001124911D08955058BB27AA270E94AB1077
:102130000C9408100E94FA0F38F00E94011020F051
:1021400039F49F3F19F426F40C94F70F0EF4E09540
:10215000E7FB0C94F10FE92F0E94191058F3BA17FE
:10216000620773078407950720F079F4A6F50C94AD
:102170003B100EF4E0950B2EBA2FA02D0B01B901E8
:1021800090010C01CA01A0011124FF27591B99F0ED
:10219000593F50F4503E68F11A16F040A22F232FF9
:1021A000342F4427585FF3CF469537952795A79549
:1021B000F0405395C9F77EF41F16BA0B620B730BF0
:1021C000840BBAF09150A1F0FF0FBB1F661F771F61
:1021D000881FC2F70EC0BA0F621F731F841F48F416
:1021E000879577956795B795F7959E3F08F0B0CF9F
:1021F0009395880F08F09927EE0F97958795089586
:102200000E94CD0F08F48FEF0895991B79E004C068
:10221000991F961708F0961B881F7A95C9F7809525
:102220000895A1E21A2EAA1BBB1BFD010DC0AA1F17
:10223000BB1FEE1FFF1FA217B307E407F50720F02F
:10224000A21BB30BE40BF50B661F771F881F991FAA
:102250001A9469F760957095809590959B01AC01F3
:10226000BD01CF010895EE0FFF1F0590F491E02D01
:1022700009940F931F93CF93DF938230910510F44D
:1022800082E090E0E091E804F091E90430E020E0A1
:10229000B0E0A0E0309799F42115310509F44AC067
:1022A000281B390B24303105D8F58A819B816115B3
:1022B000710589F1FB0193838283FE0111C0408186
:1022C00051810281138148175907E0F048175907D7
:1022D00099F4109761F012960C93129713961C9331
:1022E0003296CF01DF91CF911F910F910895009306
:1022F000E8041093E904F4CF2115310551F0421799
:10230000530738F0A901DB019A01BD01DF01F80193
:10231000C1CFEF01F9CF9093E9048093E804CDCFCA
:10232000FE01E20FF31F819391932250310939830B
:102330002883D7CF2091E6043091E704232B41F482
:1023400020910201309103013093E7042093E604C9
:1023500020910001309101012115310541F42DB783
:102360003EB74091040150910501241B350BE091CB
:10237000E604F091E704E217F307A0F42E1B3F0BED
:102380002817390778F0AC014E5F5F4F24173507E7
:1023900048F04E0F5F1F5093E7044093E60481938B
:1023A00091939FCFF0E0E0E09CCFCF93DF93009735
:1023B000E9F0FC01329713821282A091E804B091F7
:1023C000E904ED0130E020E01097A1F42081318193
:1023D000820F931F2091E6043091E70428173907F4
:1023E00009F061C0F093E704E093E604DF91CF9138
:1023F0000895EA01CE17DF07E8F54A815B819E0167
:1024000041155105B1F7E901FB83EA8349915991DF
:10241000C40FD51FEC17FD0761F4808191810296EE
:10242000840F951FE90199838883828193819B831F
:102430008A83F0E0E0E012968D919C9113970097CB
:10244000B9F52D913C911197CD010296820F931F02
:102450002091E6043091E7042817390739F63097C0
:1024600051F51092E9041092E804B093E704A093A8
:10247000E604BCCFD383C28340815181840F951F72
:10248000C817D90761F44E5F5F4F88819981480F63
:10249000591F518340838A819B81938382832115B5
:1024A000310509F0B0CFF093E904E093E8049ECF42
:1024B000FD01DC01C0CF13821282D7CFB0E0A0E0D3
:1024C000E4E6F2E10C944F108C01009751F4CB013B
:1024D0000E9439118C01C801CDB7DEB7E0E10C9440
:1024E0006B10FC01E60FF71F9C0122503109E21727
:1024F000F30708F49DC0D901CD91DC911197C6175F
:10250000D70798F0C530D10530F3CE010497861770
:10251000970708F3C61BD70B2297C193D1936D93EE
:102520007C93CF010E94D511D6CF5B01AC1ABD0AB6
:102530004C018C0E9D1EA091E804B091E904512C31
:10254000412CF12CE12C109731F58091E60490910B
:10255000E7048815990509F05CC04616570608F08F
:1025600058C08091000190910101009741F48DB70E
:102570009EB74091040150910501841B950BE8170B
:10258000F90708F055C0F093E704E093E604F90179
:1025900071836083A0CF8D919C91119712966C905E
:1025A000129713967C901397A815B90559F56C01ED
:1025B00042E0C40ED11CCA14DB0420F1AC014A195C
:1025C0005B09DA011296159780F06282738251835B
:1025D0004083D9016D937C93E114F10471F0D7012C
:1025E0001396FC93EE93129776CF22968C0F9D1F35
:1025F000F90191838083F301EFCFF093E904E09335
:10260000E80469CF4816590608F42C017D01D3016E
:102610009ACFCB010E9439117C01009749F0AE019D
:10262000B8010E941B13C8010E94D511870153CF26
:1026300010E000E050CFFB01DC0102C001900D92E0
:1026400041505040D8F70895FB01DC018D91019075
:1026500080190110D9F3990B0895FB01DC01019059
:102660000D920020E1F7089510E0C3E7D0E004C028
:10267000FE010E9433112196C437D107C9F7F8949F
:10268000FFCF0000EA048000000000004101A1002B
:10269000CE008E01FF00DD00F10000000000CE043E
:1026A000A104FD0477049A0487047804436F756CD1
:1026B000646E27742066696E6420525443000D0ACC
:1026C00000525443206973204E4F542072756E6E31
:1026D000696E672C206C6574277320736574207491
:1026E00068652074696D65210072657365740063A7
:1026F0006F727265637400726566696C6C006E6FF0
:10270000656D2400646F6E65006E657874006261AB
:04271000636B0000F7
:107800000C94343C0C94513C0C94513C0C94513CE1
:107810000C94513C0C94513C0C94513C0C94513CB4
:107820000C94513C0C94513C0C94513C0C94513CA4
:107830000C94513C0C94513C0C94513C0C94513C94
:107840000C94513C0C94513C0C94513C0C94513C84
:107850000C94513C0C94513C0C94513C0C94513C74
:107860000C94513C0C94513C11241FBECFEFD8E036
:10787000DEBFCDBF11E0A0E0B1E0ECE9FFE702C060
:1078800005900D92A230B107D9F712E0A2E0B1E065
:1078900001C01D92AD30B107E1F70E942D3D0C945F
:1078A000CC3F0C94003C982F959595959595959582
:1078B000905D8F708A307CF0282F295A8091C0000B
:1078C00085FFFCCF9093C6008091C00085FFFCCF60
:1078D0002093C6000895282F205DF0CF982F809127
:1078E000C00085FFFCCF9093C6000895EF92FF92F1
:1078F0000F931F93EE24FF2487018091C00087FD22
:1079000017C00894E11CF11C011D111D81E4E8164B
:1079100082E4F8068FE0080780E0180770F3E09132
:107920000401F091050109958091C00087FFE9CF1E
:107930008091C6001F910F91FF90EF9008950E94D3
:10794000763C982F8091C00085FFFCCF9093C600B5
:1079500091362CF490330CF09053892F089597555D
:10796000892F08951F930E949F3C182F0E949F3CCF
:107970001295107F810F1F9108951F93182F882350
:1079800021F00E94763C1150E1F71F9108951F935A
:10799000182F0E94763C803249F0809103018F5F5E
:1079A000809303018530C1F01F9108958091C0003C
:1079B00085FFFCCF84E18093C6008091C00085FFE5
:1079C000FCCF1093C6008091C00085FFFCCF80E102
:1079D0008093C6001F910895E0910401F091050184
:1079E00009951F9108950E94763C803241F0809164
:1079F00003018F5F80930301853081F008958091AA
:107A0000C00085FFFCCF84E18093C6008091C00058
:107A100085FFFCCF80E18093C6000895E0910401CA
:107A2000F09105010995089540E951E08823A1F0FE
:107A30002D9A28EE33E0FA013197F1F721503040CA
:107A4000D1F72D9828EE33E0FA013197F1F7215064
:107A50003040D1F7815061F708953F924F925F9285
:107A60006F927F928F929F92AF92BF92CF92DF924E
:107A7000EF92FF920F931F93CF93DF93000080E16B
:107A80008093C4001092C50088E18093C10086E015
:107A90008093C2005098589A259A81E00E94143D24
:107AA00024E1F22E9EE1E92E85E9D82E0FE0C02ECA
:107AB00010E1B12EAA24A394B1E49B2EA6E58A2E50
:107AC000F2E57F2EE0E26E2E79E4572E63E5462E36
:107AD00050E5352E0E94763C8033B1F18133B9F107
:107AE000803409F46FC0813409F476C0823409F41B
:107AF00085C0853409F488C0803531F1823521F1A3
:107B0000813511F1853509F485C0863509F48DC0BC
:107B1000843609F496C0843709F403C1853709F423
:107B200072C1863709F466C0809103018F5F80932C
:107B30000301853079F6E0910401F0910501099582
:107B40000E94763C803351F60E94F33CC3CF0E94E2
:107B5000763C803249F78091C00085FFFCCFF092DF
:107B6000C6008091C00085FFFCCF9092C600809136
:107B7000C00085FFFCCF8092C6008091C00085FFC9
:107B8000FCCF7092C6008091C00085FFFCCF609250
:107B9000C6008091C00085FFFCCF5092C600809146
:107BA000C00085FFFCCF4092C6008091C00085FFD9
:107BB000FCCF3092C6008091C00085FFFCCFB09210
:107BC000C60088CF0E94763C863808F4BDCF0E945C
:107BD000763C0E94F33C7ECF0E94763C803809F4CC
:107BE0009CC0813809F40BC1823809F43CC1883942
:107BF00009F48FC080E00E94C73C6CCF84E10E94F2
:107C0000BD3C0E94F33C66CF85E00E94BD3C0E94D3
:107C1000F33C60CF0E94763C809306010E94763C44
:107C2000809307010E94F33C55CF0E94763C80333D
:107C300009F41DC183E00E94BD3C80E00E94C73C66
:107C400049CF0E94763C809309020E94763C809343
:107C5000080280910C028E7F80930C020E94763C79
:107C6000853409F415C18091080290910902892B8D
:107C700089F000E010E00E94763CF801E85FFE4FDA
:107C800080830F5F1F4F80910802909109020817AF
:107C9000190788F30E94763C803209F045CF809125
:107CA0000C0280FF01C16091060170910701660F0F
:107CB000771F7093070160930601A0910802B091AD
:107CC00009021097C9F0E8E0F1E09B01AD014E0F09
:107CD0005F1FF999FECF32BD21BD819180BDFA9A17
:107CE000F99A2F5F3F4FE417F50799F76A0F7B1F4B
:107CF00070930701609306018091C00085FFFCCF5F
:107D0000F092C6008091C00085FFFCCFB092C60003
:107D1000E1CE83E00E94C73CDDCE82E00E94C73CFA
:107D2000D9CE0E94763C809309020E94763C8093D3
:107D300008028091060190910701880F991F909386
:107D40000701809306010E94763C853409F4A6C0A1
:107D500080910C028E7F80930C020E94763C8032D0
:107D600009F0B8CE8091C00085FFFCCFF092C6002C
:107D7000609108027091090261157105B9F140E046
:107D800050E080910C02A82FA170B82FB27011C0E2
:107D9000BB2309F45CC0E0910601F0910701319624
:107DA000F0930701E09306014F5F5F4F46175707B7
:107DB000E8F4AA2369F3F999FECF209106013091E6
:107DC000070132BD21BDF89A90B58091C00085FFB2
:107DD000FCCF9093C6002F5F3F4F30930701209355
:107DE00006014F5F5F4F4617570718F38091C00099
:107DF00085FDE5CE8091C00085FFF8CFE0CE81E023
:107E00000E94C73C67CE0E94763C803209F08CCE3F
:107E10008091C00085FFFCCFF092C6008091C00029
:107E200085FFFCCFE092C6008091C00085FFFCCFAB
:107E3000D092C6008091C00085FFFCCFC092C600E2
:107E40008091C00085FFFCCFB092C60043CEE09188
:107E50000601F091070194918091C00085FFFCCF4D
:107E60009093C6009CCF80E10E94C73C33CE0E9415
:107E7000763C0E94763C182F0E94763C112309F430
:107E800083C0113009F484C08FE00E94C73C22CE29
:107E900080910C02816080930C02E5CE80910C02EF
:107EA000816080930C0259CF809107018823880F4D
:107EB000880B8A2180930B02809106019091070123
:107EC000880F991F90930701809306018091080203
:107ED00080FF09C080910802909109020196909359
:107EE000090280930802F894F999FECF1127E091D6
:107EF0000601F0910701C8E0D1E08091080290915D
:107F00000902103091F40091570001700130D9F34B
:107F100003E000935700E89500915700017001308D
:107F2000D9F301E100935700E89509901990009169
:107F3000570001700130D9F301E000935700E89534
:107F40001395103498F011270091570001700130FB
:107F5000D9F305E000935700E895009157000170B0
:107F60000130D9F301E100935700E895329602976A
:107F700009F0C7CF103011F00296E5CF112480919F
:107F8000C00085FFB9CEBCCE8EE10E94C73CA2CD19
:0E7F900085E90E94C73C9ECDF894FFCF80008B
:00000001FF
