:100000000C9435000C945D000C945D000C945D0024
:100010000C945D000C945D000C945D000C945D00EC
:100020000C945D000C945D000C945D000C945D00DC
:100030000C945D000C945D000C945D000C945D00CC
:100040000C94B4020C945D000C9482020C945C023B
:100050000C945D000C945D000C945D000C945D00AC
:100060000C945D000C945D00C00311241FBECFEF03
:10007000D8E0DEBFCDBF11E0A0E0B1E0E8EBF9E0F1
:1000800002C005900D92AE35B107D9F722E0AEE57A
:10009000B1E001C01D92A430B207E1F710E0C5E362
:1000A000D0E004C02197FE010E94D404C433D107DC
:1000B000C9F70E94FE020C94DA040C940000AF927F
:1000C000BF92CF92DF92EF92FF920F931F93CF9345
:1000D000DF936C017B018B01040F151FEB015E01A7
:1000E000AE18BF08C017D10759F06991D601ED913C
:1000F000FC910190F081E02DC6010995892B79F7DB
:10010000C501DF91CF911F910F91FF90EF90DF908C
:10011000CF90BF90AF900895FC01538D448D252F53
:1001200030E0842F90E0821B930B541710F0CF9691
:10013000089501970895FC01918D828D981761F0C3
:10014000A28DAE0FBF2FB11D5D968C91928D9F5FDA
:100150009F73928F90E008958FEF9FEF0895FC01B9
:10016000918D828D981731F0828DE80FF11D858D6C
:1001700090E008958FEF9FEF0895FC01918D228DFF
:10018000892F90E0805C9F4F821B91098F73992784
:10019000089587E691E00E94BD0021E0892B09F4D3
:1001A00020E0822F089580E090E0892B29F00E94C2
:1001B000C90081110C9400000895FC01A48DA80FC2
:1001C000B92FB11DA35ABF4F2C91848D90E0019699
:1001D0008F739927848FA689B7892C93A089B189B9
:1001E0008C91837080648C93938D848D981306C05A
:1001F0000288F389E02D80818F7D80830895EF92BE
:10020000FF920F931F93CF93DF93EC0181E0888FD0
:100210009B8D8C8D98131AC0E889F989808185FFA0
:1002200015C09FB7F894EE89FF896083E889F98942
:1002300080818370806480839FBF81E090E0DF9144
:10024000CF911F910F91FF90EF900895F62E0B8D97
:1002500010E00F5F1F4F0F731127E02E8C8D8E1152
:100260000CC00FB607FCFACFE889F989808185FFB9
:10027000F5CFCE010E94DD00F1CFEB8DEC0FFD2F0D
:10028000F11DE35AFF4FF0829FB7F8940B8FEA8974
:10029000FB8980818062CFCFCF93DF93EC01888D83
:1002A0008823B9F0AA89BB89E889F9898C9185FDF1
:1002B00003C0808186FD0DC00FB607FCF7CF8C917F
:1002C00085FFF2CF808185FFEDCFCE010E94DD005A
:1002D000E9CFDF91CF9108953FB7F8948091630102
:1002E00090916401A0916501B091660126B5A89B2B
:1002F00005C02F3F19F00196A11DB11D3FBFBA2FB8
:10030000A92F982F8827BC01CD01620F711D811D77
:10031000911D42E0660F771F881F991F4A95D1F7FC
:1003200008958F929F92AF92BF92CF92DF92EF92F9
:10033000FF926B017C010E946C014B015C01C114B6
:10034000D104E104F104B9F00E946C016819790943
:100350008A099B09683E73408105910580F321E07D
:10036000C21AD108E108F10888EE880E83E0981ED1
:10037000A11CB11CE4CFFF90EF90DF90CF90BF9015
:10038000AF909F908F900895CF92DF92EF92FF925F
:1003900085E2C82E89E4D82E82E9E82E83E4F82E7F
:1003A00020E030E040E85FE3C701B6010E94AB0403
:1003B00087FD65C05E9A65E070E080E090E00E9495
:1003C00091015E9820E030E040E85FE3C701B601AC
:1003D0000E94ED036B017C0120E030E040E85FE328
:1003E0000E94AB0487FD12C05F9A65E070E080E078
:1003F00090E00E9491015F9820E030E040E85FE3E8
:10040000C701B6010E94ED036B017C0120E030E0E2
:1004100040E85FE3C701B6010E94AB0487FD12C04C
:10042000289A65E070E080E090E00E9491012898B1
:1004300020E030E040E85FE3C701B6010E94ED0331
:100440006B017C0120E030E040E85FE3C701B601CA
:100450000E94AB0487FDA4CF299A65E070E080E09C
:1004600090E00E949101299820E030E040E85FE3AD
:10047000C701B6010E94ED036B017C0191CFFF9093
:10048000EF90DF90CF900895CF93DF9347E450E053
:1004900062E171E087E691E00E945F00EC0142E0DA
:1004A00050E06AE571E087E691E00E945F008C0F02
:1004B0009D1FDF91CF9108951F920F920FB60F925B
:1004C00011242F933F934F935F936F937F938F9359
:1004D0009F93AF93BF93EF93FF9387E691E00E94C2
:1004E000DD00FF91EF91BF91AF919F918F917F912F
:1004F0006F915F914F913F912F910F900FBE0F9091
:100500001F9018951F920F920FB60F9211242F93E0
:100510008F939F93EF93FF93E0917701F091780190
:100520008081E0917D01F0917E0182FD1BC0908170
:10053000809180018F5F8F7320918101821741F03C
:10054000E0918001F0E0E959FE4F958F80938001A2
:10055000FF91EF919F918F912F910F900FBE0F9070
:100560001F9018958081F4CF1F920F920FB60F92B3
:1005700011242F933F938F939F93AF93BF938091B9
:100580005F0190916001A0916101B0916201309191
:100590005E0123E0230F2D3758F50196A11DB11DF3
:1005A00020935E0180935F0190936001A0936101AD
:1005B000B09362018091630190916401A091650103
:1005C000B09166010196A11DB11D809363019093C6
:1005D0006401A0936501B0936601BF91AF919F91B3
:1005E0008F913F912F910F900FBE0F901F901895F4
:1005F00026E8230F0296A11DB11DD2CF789484B5B1
:10060000826084BD84B5816084BD85B5826085BD0E
:1006100085B5816085BD80916E00816080936E009C
:10062000109281008091810082608093810080918E
:10063000810081608093810080918000816080933F
:1006400080008091B10084608093B1008091B000FF
:1006500081608093B00080917A00846080937A00FA
:1006600080917A00826080937A0080917A00816024
:1006700080937A0080917A00806880937A0010924B
:10068000C10087E08AB915B8E0917701F09178014F
:1006900082E08083E0917301F09174011082E09117
:1006A0007501F09176018FEC808310927F01E091CB
:1006B0007B01F0917C0186E08083E0917901F091EB
:1006C0007A01808180618083E0917901F0917A01E3
:1006D000808188608083E0917901F0917A01808146
:1006E00080688083E0917901F0917A0180818F7D2B
:1006F00080830E94C4010E94440264E670E080E0AE
:1007000090E00E9491010E94C4010E94440264E6AC
:1007100070E080E090E00E9491010E94C4010E947C
:10072000440264E670E080E090E00E9491010E9443
:10073000C4010E94440264E670E080E090E00E9400
:1007400091010E94C4010E94440264E670E080E0CE
:1007500090E00E9491010E94C4010E94440264E65C
:1007600070E080E090E00E9491010E94C4010E942C
:10077000440268EE73E080E090E00E949101FFCFB8
:10078000E7E6F1E01382128288EE93E0A0E0B0E0A9
:1007900084839583A683B78384E091E091838083EB
:1007A00085EC90E09587848784EC90E09787868736
:1007B00080EC90E0918B808B81EC90E0938B828B2E
:1007C00082EC90E0958B848B86EC90E0978B868B07
:1007D000118E128E138E148E08955058BB27AA279F
:1007E0000E9405040C9471040E94630438F00E9476
:1007F0006A0420F039F49F3F19F426F40C94600445
:100800000EF4E095E7FB0C945A04E92F0E94820451
:1008100058F3BA17620773078407950720F079F435
:10082000A6F50C94A4040EF4E0950B2EBA2FA02D7F
:100830000B01B90190010C01CA01A0011124FF278D
:10084000591B99F0593F50F4503E68F11A16F04088
:10085000A22F232F342F4427585FF3CF4695379587
:100860002795A795F0405395C9F77EF41F16BA0B4C
:10087000620B730B840BBAF09150A1F0FF0FBB1FFA
:10088000661F771F881FC2F70EC0BA0F621F731F43
:10089000841F48F4879577956795B795F7959E3FA0
:1008A00008F0B0CF9395880F08F09927EE0F979531
:1008B0008795089597F99F6780E870E060E0089554
:1008C0009FEF80EC089500240A9416161706180668
:1008D0000906089500240A94121613061406050644
:1008E0000895092E0394000C11F4882352F0BB0FD5
:1008F00040F4BF2B11F460FF04C06F5F7F4F8F4F38
:100900009F4F089557FD9058440F551F59F05F3F72
:1009100071F04795880F97FB991F61F09F3F79F021
:1009200087950895121613061406551FF2CF4695A3
:10093000F1DF08C0161617061806991FF1CF869525
:100940007105610508940895E894BB276627772709
:10095000CB0197F908950E94B00408F48FEF089531
:10096000990F0008550FAA0BE0E8FEEF16161706C0
:10097000E807F907C0F012161306E407F50798F028
:10098000621B730B840B950B39F40A2661F0232B41
:10099000242B252B21F408950A2609F4A140A695BD
:1009A0008FEF811D811D0895EE0FFF1F0590F491BB
:0809B000E02D0994F894FFCF3B
:1009B80000000000FF005F008C004C01BD009B00A0
:1009C800AF005F5F5F5F5F5F5F5F5F5F5F5F5F5F3E
:1009D8005F5F5F5F5F5F5F5F5F5F5F5F5F5F5F5F1F
:1009E8005F5F5F5F5F5F5F5F5F5F5F5F5F5F5F5F0F
:1009F8005F5F5F5F5F5F5F5F5F5F5F5F5F5F5F5FFF
:0E0A08005F5F5F5F5F5F5F5F5F000D0A000072
:00000001FF
